{
  "contractName": "Certification",
  "abi": [
    {
      "inputs": [
        {
          "internalType": "address",
          "name": "userAddress",
          "type": "address"
        },
        {
          "internalType": "string",
          "name": "id",
          "type": "string"
        },
        {
          "internalType": "enum Certification.UserType",
          "name": "userType",
          "type": "uint8"
        }
      ],
      "name": "registerUser",
      "outputs": [],
      "stateMutability": "nonpayable",
      "type": "function"
    },
    {
      "inputs": [
        {
          "internalType": "address",
          "name": "userAddress",
          "type": "address"
        },
        {
          "internalType": "string",
          "name": "certificateId",
          "type": "string"
        },
        {
          "internalType": "string",
          "name": "certificateDetail",
          "type": "string"
        },
        {
          "internalType": "string",
          "name": "id",
          "type": "string"
        },
        {
          "internalType": "enum Certification.UserType",
          "name": "userType",
          "type": "uint8"
        }
      ],
      "name": "issueCertificate",
      "outputs": [],
      "stateMutability": "nonpayable",
      "type": "function"
    },
    {
      "inputs": [
        {
          "internalType": "address",
          "name": "userAddress",
          "type": "address"
        },
        {
          "internalType": "string",
          "name": "certificateId",
          "type": "string"
        }
      ],
      "name": "verifyCertificate",
      "outputs": [
        {
          "internalType": "bool",
          "name": "",
          "type": "bool"
        }
      ],
      "stateMutability": "view",
      "type": "function",
      "constant": true
    },
    {
      "inputs": [
        {
          "internalType": "address",
          "name": "userAddress",
          "type": "address"
        }
      ],
      "name": "getUser",
      "outputs": [
        {
          "internalType": "string",
          "name": "",
          "type": "string"
        },
        {
          "internalType": "enum Certification.UserType",
          "name": "",
          "type": "uint8"
        }
      ],
      "stateMutability": "view",
      "type": "function",
      "constant": true
    },
    {
      "inputs": [
        {
          "internalType": "address",
          "name": "userAddress",
          "type": "address"
        }
      ],
      "name": "getUserCertificates",
      "outputs": [
        {
          "components": [
            {
              "internalType": "string",
              "name": "certificateId",
              "type": "string"
            },
            {
              "internalType": "string",
              "name": "certificateDetail",
              "type": "string"
            },
            {
              "internalType": "address",
              "name": "Issuer",
              "type": "address"
            },
            {
              "internalType": "bool",
              "name": "verified",
              "type": "bool"
            }
          ],
          "internalType": "struct Certification.Certificate[]",
          "name": "",
          "type": "tuple[]"
        }
      ],
      "stateMutability": "view",
      "type": "function",
      "constant": true
    },
    {
      "inputs": [
        {
          "internalType": "address",
          "name": "userAddress",
          "type": "address"
        },
        {
          "internalType": "string",
          "name": "certificateId",
          "type": "string"
        }
      ],
      "name": "getUserCertificateById",
      "outputs": [
        {
          "components": [
            {
              "internalType": "string",
              "name": "certificateId",
              "type": "string"
            },
            {
              "internalType": "string",
              "name": "certificateDetail",
              "type": "string"
            },
            {
              "internalType": "address",
              "name": "Issuer",
              "type": "address"
            },
            {
              "internalType": "bool",
              "name": "verified",
              "type": "bool"
            }
          ],
          "internalType": "struct Certification.Certificate[]",
          "name": "",
          "type": "tuple[]"
        }
      ],
      "stateMutability": "view",
      "type": "function",
      "constant": true
    },
    {
      "inputs": [
        {
          "internalType": "string",
          "name": "certificateId",
          "type": "string"
        }
      ],
      "name": "shareCertificate",
      "outputs": [],
      "stateMutability": "nonpayable",
      "type": "function"
    },
    {
      "inputs": [
        {
          "internalType": "string",
          "name": "certificateId",
          "type": "string"
        }
      ],
      "name": "checkSharedCertificate",
      "outputs": [
        {
          "internalType": "bool",
          "name": "",
          "type": "bool"
        }
      ],
      "stateMutability": "view",
      "type": "function",
      "constant": true
    },
    {
      "inputs": [
        {
          "internalType": "string",
          "name": "certificateId",
          "type": "string"
        }
      ],
      "name": "checkCertificateWithUser",
      "outputs": [
        {
          "internalType": "bool",
          "name": "",
          "type": "bool"
        }
      ],
      "stateMutability": "view",
      "type": "function",
      "constant": true
    },
    {
      "inputs": [
        {
          "internalType": "address",
          "name": "userAddress",
          "type": "address"
        }
      ],
      "name": "getSharedCertificates",
      "outputs": [
        {
          "internalType": "string[]",
          "name": "",
          "type": "string[]"
        }
      ],
      "stateMutability": "view",
      "type": "function",
      "constant": true
    }
  ],
  "bytecode": "0x608060405234801561001057600080fd5b50611e9f806100206000396000f3fe608060405234801561001057600080fd5b506004361061009e5760003560e01c806381efad241161006657806381efad241461016c578063822b3eff1461018857806393ef2ca1146101b8578063f83f8ead146101e8578063fac4b076146102185761009e565b80630385bd18146100a357806332cc82b3146100d357806366b56df5146101035780636f77926b1461011f5780637367abc114610150575b600080fd5b6100bd60048036038101906100b89190611244565b610248565b6040516100ca9190611457565b60405180910390f35b6100ed60048036038101906100e891906115ae565b610535565b6040516100fa9190611619565b60405180910390f35b61011d60048036038101906101189190611634565b6105ff565b005b61013960048036038101906101349190611244565b61067c565b60405161014792919061173e565b60405180910390f35b61016a60048036038101906101659190611793565b610807565b005b61018660048036038101906101819190611862565b6109c8565b005b6101a2600480360381019061019d91906115ae565b610ade565b6040516101af9190611457565b60405180910390f35b6101d260048036038101906101cd9190611244565b610eea565b6040516101df9190611993565b60405180910390f35b61020260048036038101906101fd9190611634565b61100a565b60405161020f9190611619565b60405180910390f35b610232600480360381019061022d9190611634565b6110d3565b60405161023f9190611619565b60405180910390f35b606060008060008473ffffffffffffffffffffffffffffffffffffffff1673ffffffffffffffffffffffffffffffffffffffff1681526020019081526020016000206000018054610298906119e4565b9050036102fb57600067ffffffffffffffff8111156102ba576102b9611483565b5b6040519080825280602002602001820160405280156102f357816020015b6102e0611192565b8152602001906001900390816102d85790505b509050610530565b60008060008473ffffffffffffffffffffffffffffffffffffffff1673ffffffffffffffffffffffffffffffffffffffff168152602001908152602001600020905080600201805480602002602001604051908101604052809291908181526020016000905b828210156105285783829060005260206000209060030201604051806080016040529081600082018054610394906119e4565b80601f01602080910402602001604051908101604052809291908181526020018280546103c0906119e4565b801561040d5780601f106103e25761010080835404028352916020019161040d565b820191906000526020600020905b8154815290600101906020018083116103f057829003601f168201915b50505050508152602001600182018054610426906119e4565b80601f0160208091040260200160405190810160405280929190818152602001828054610452906119e4565b801561049f5780601f106104745761010080835404028352916020019161049f565b820191906000526020600020905b81548152906001019060200180831161048257829003601f168201915b505050505081526020016002820160009054906101000a900473ffffffffffffffffffffffffffffffffffffffff1673ffffffffffffffffffffffffffffffffffffffff1673ffffffffffffffffffffffffffffffffffffffff1681526020016002820160149054906101000a900460ff16151515158152505081526020019060010190610361565b505050509150505b919050565b6000806000808573ffffffffffffffffffffffffffffffffffffffff1673ffffffffffffffffffffffffffffffffffffffff168152602001908152602001600020905060008160020190506000805b82805490508110156105f25785805190602001208382815481106105ab576105aa611a15565b5b90600052602060002090600302016000016040516105c99190611ae7565b6040518091039020036105df57600191506105f2565b80806105ea90611b37565b915050610584565b5080935050505092915050565b60008060003373ffffffffffffffffffffffffffffffffffffffff1673ffffffffffffffffffffffffffffffffffffffff168152602001908152602001600020905080600301829080600181540180825580915050600190039060005260206000200160009091909190915090816106779190611d2b565b505050565b60606000806000808573ffffffffffffffffffffffffffffffffffffffff1673ffffffffffffffffffffffffffffffffffffffff168152602001908152602001600020905060008060008673ffffffffffffffffffffffffffffffffffffffff1673ffffffffffffffffffffffffffffffffffffffff168152602001908152602001600020600001805461070f906119e4565b905011156107c357806000018160010160009054906101000a900460ff16818054610739906119e4565b80601f0160208091040260200160405190810160405280929190818152602001828054610765906119e4565b80156107b25780601f10610787576101008083540402835291602001916107b2565b820191906000526020600020905b81548152906001019060200180831161079557829003601f168201915b505050505091509250925050610802565b60036040518060400160405280600181526020017f30000000000000000000000000000000000000000000000000000000000000008152509092509250505b915091565b60008060008773ffffffffffffffffffffffffffffffffffffffff1673ffffffffffffffffffffffffffffffffffffffff1681526020019081526020016000206000018054610855906119e4565b905003610868576108678583836109c8565b5b60008060008773ffffffffffffffffffffffffffffffffffffffff1673ffffffffffffffffffffffffffffffffffffffff16815260200190815260200160002090506108b2611192565b85816000018190525033816040019073ffffffffffffffffffffffffffffffffffffffff16908173ffffffffffffffffffffffffffffffffffffffff168152505084816020018190525081600201819080600181540180825580915050600190039060005260206000209060030201600090919091909150600082015181600001908161093f9190611d2b565b5060208201518160010190816109559190611d2b565b5060408201518160020160006101000a81548173ffffffffffffffffffffffffffffffffffffffff021916908373ffffffffffffffffffffffffffffffffffffffff16021790555060608201518160020160146101000a81548160ff021916908315150217905550505050505050505050565b60008060008573ffffffffffffffffffffffffffffffffffffffff1673ffffffffffffffffffffffffffffffffffffffff1681526020019081526020016000206000018054610a16906119e4565b905014610a58576040517f08c379a0000000000000000000000000000000000000000000000000000000008152600401610a4f90611e49565b60405180910390fd5b60008060008573ffffffffffffffffffffffffffffffffffffffff1673ffffffffffffffffffffffffffffffffffffffff168152602001908152602001600020905082816000019081610aab9190611d2b565b50818160010160006101000a81548160ff02191690836003811115610ad357610ad26116c7565b5b021790555050505050565b606060008060008573ffffffffffffffffffffffffffffffffffffffff1673ffffffffffffffffffffffffffffffffffffffff1681526020019081526020016000206000018054610b2e906119e4565b905003610b9157600067ffffffffffffffff811115610b5057610b4f611483565b5b604051908082528060200260200182016040528015610b8957816020015b610b76611192565b815260200190600190039081610b6e5790505b509050610ee4565b60008060008573ffffffffffffffffffffffffffffffffffffffff1673ffffffffffffffffffffffffffffffffffffffff16815260200190815260200160002090506000816002019050606060005b8280549050811015610e88578580519060200120838281548110610c0757610c06611a15565b5b9060005260206000209060030201600001604051610c259190611ae7565b604051809103902003610e7557600167ffffffffffffffff811115610c4d57610c4c611483565b5b604051908082528060200260200182016040528015610c8657816020015b610c73611192565b815260200190600190039081610c6b5790505b509150828181548110610c9c57610c9b611a15565b5b9060005260206000209060030201604051806080016040529081600082018054610cc5906119e4565b80601f0160208091040260200160405190810160405280929190818152602001828054610cf1906119e4565b8015610d3e5780601f10610d1357610100808354040283529160200191610d3e565b820191906000526020600020905b815481529060010190602001808311610d2157829003601f168201915b50505050508152602001600182018054610d57906119e4565b80601f0160208091040260200160405190810160405280929190818152602001828054610d83906119e4565b8015610dd05780601f10610da557610100808354040283529160200191610dd0565b820191906000526020600020905b815481529060010190602001808311610db357829003601f168201915b505050505081526020016002820160009054906101000a900473ffffffffffffffffffffffffffffffffffffffff1673ffffffffffffffffffffffffffffffffffffffff1673ffffffffffffffffffffffffffffffffffffffff1681526020016002820160149054906101000a900460ff16151515158152505082600081518110610e5e57610e5d611a15565b5b602002602001018190525081945050505050610ee4565b8080610e8090611b37565b915050610be0565b50600067ffffffffffffffff811115610ea457610ea3611483565b5b604051908082528060200260200182016040528015610edd57816020015b610eca611192565b815260200190600190039081610ec25790505b5093505050505b92915050565b606060008060008473ffffffffffffffffffffffffffffffffffffffff1673ffffffffffffffffffffffffffffffffffffffff168152602001908152602001600020905080600301805480602002602001604051908101604052809291908181526020016000905b82821015610ffe578382906000526020600020018054610f71906119e4565b80601f0160208091040260200160405190810160405280929190818152602001828054610f9d906119e4565b8015610fea5780601f10610fbf57610100808354040283529160200191610fea565b820191906000526020600020905b815481529060010190602001808311610fcd57829003601f168201915b505050505081526020019060010190610f52565b50505050915050919050565b6000806000803373ffffffffffffffffffffffffffffffffffffffff1673ffffffffffffffffffffffffffffffffffffffff168152602001908152602001600020905060008160020190506000805b82805490508110156110c75785805190602001208382815481106110805761107f611a15565b5b906000526020600020906003020160000160405161109e9190611ae7565b6040518091039020036110b457600191506110c7565b80806110bf90611b37565b915050611059565b50809350505050919050565b6000806000803373ffffffffffffffffffffffffffffffffffffffff1673ffffffffffffffffffffffffffffffffffffffff16815260200190815260200160002090506000805b826003018054905081101561118757848051906020012083600301828154811061114757611146611a15565b5b9060005260206000200160405161115e9190611ae7565b6040518091039020036111745760019150611187565b808061117f90611b37565b91505061111a565b508092505050919050565b60405180608001604052806060815260200160608152602001600073ffffffffffffffffffffffffffffffffffffffff1681526020016000151581525090565b6000604051905090565b600080fd5b600080fd5b600073ffffffffffffffffffffffffffffffffffffffff82169050919050565b6000611211826111e6565b9050919050565b61122181611206565b811461122c57600080fd5b50565b60008135905061123e81611218565b92915050565b60006020828403121561125a576112596111dc565b5b60006112688482850161122f565b91505092915050565b600081519050919050565b600082825260208201905092915050565b6000819050602082019050919050565b600081519050919050565b600082825260208201905092915050565b60005b838110156112d75780820151818401526020810190506112bc565b60008484015250505050565b6000601f19601f8301169050919050565b60006112ff8261129d565b61130981856112a8565b93506113198185602086016112b9565b611322816112e3565b840191505092915050565b61133681611206565b82525050565b60008115159050919050565b6113518161133c565b82525050565b6000608083016000830151848203600086015261137482826112f4565b9150506020830151848203602086015261138e82826112f4565b91505060408301516113a3604086018261132d565b5060608301516113b66060860182611348565b508091505092915050565b60006113cd8383611357565b905092915050565b6000602082019050919050565b60006113ed82611271565b6113f7818561127c565b9350836020820285016114098561128d565b8060005b85811015611445578484038952815161142685826113c1565b9450611431836113d5565b925060208a0199505060018101905061140d565b50829750879550505050505092915050565b6000602082019050818103600083015261147181846113e2565b905092915050565b600080fd5b600080fd5b7f4e487b7100000000000000000000000000000000000000000000000000000000600052604160045260246000fd5b6114bb826112e3565b810181811067ffffffffffffffff821117156114da576114d9611483565b5b80604052505050565b60006114ed6111d2565b90506114f982826114b2565b919050565b600067ffffffffffffffff82111561151957611518611483565b5b611522826112e3565b9050602081019050919050565b82818337600083830152505050565b600061155161154c846114fe565b6114e3565b90508281526020810184848401111561156d5761156c61147e565b5b61157884828561152f565b509392505050565b600082601f83011261159557611594611479565b5b81356115a584826020860161153e565b91505092915050565b600080604083850312156115c5576115c46111dc565b5b60006115d38582860161122f565b925050602083013567ffffffffffffffff8111156115f4576115f36111e1565b5b61160085828601611580565b9150509250929050565b6116138161133c565b82525050565b600060208201905061162e600083018461160a565b92915050565b60006020828403121561164a576116496111dc565b5b600082013567ffffffffffffffff811115611668576116676111e1565b5b61167484828501611580565b91505092915050565b600082825260208201905092915050565b60006116998261129d565b6116a3818561167d565b93506116b38185602086016112b9565b6116bc816112e3565b840191505092915050565b7f4e487b7100000000000000000000000000000000000000000000000000000000600052602160045260246000fd5b60048110611707576117066116c7565b5b50565b6000819050611718826116f6565b919050565b60006117288261170a565b9050919050565b6117388161171d565b82525050565b60006040820190508181036000830152611758818561168e565b9050611767602083018461172f565b9392505050565b6004811061177b57600080fd5b50565b60008135905061178d8161176e565b92915050565b600080600080600060a086880312156117af576117ae6111dc565b5b60006117bd8882890161122f565b955050602086013567ffffffffffffffff8111156117de576117dd6111e1565b5b6117ea88828901611580565b945050604086013567ffffffffffffffff81111561180b5761180a6111e1565b5b61181788828901611580565b935050606086013567ffffffffffffffff811115611838576118376111e1565b5b61184488828901611580565b92505060806118558882890161177e565b9150509295509295909350565b60008060006060848603121561187b5761187a6111dc565b5b60006118898682870161122f565b935050602084013567ffffffffffffffff8111156118aa576118a96111e1565b5b6118b686828701611580565b92505060406118c78682870161177e565b9150509250925092565b600081519050919050565b600082825260208201905092915050565b6000819050602082019050919050565b600061190983836112f4565b905092915050565b6000602082019050919050565b6000611929826118d1565b61193381856118dc565b935083602082028501611945856118ed565b8060005b85811015611981578484038952815161196285826118fd565b945061196d83611911565b925060208a01995050600181019050611949565b50829750879550505050505092915050565b600060208201905081810360008301526119ad818461191e565b905092915050565b7f4e487b7100000000000000000000000000000000000000000000000000000000600052602260045260246000fd5b600060028204905060018216806119fc57607f821691505b602082108103611a0f57611a0e6119b5565b5b50919050565b7f4e487b7100000000000000000000000000000000000000000000000000000000600052603260045260246000fd5b600081905092915050565b60008190508160005260206000209050919050565b60008154611a71816119e4565b611a7b8186611a44565b94506001821660008114611a965760018114611aab57611ade565b60ff1983168652811515820286019350611ade565b611ab485611a4f565b60005b83811015611ad657815481890152600182019150602081019050611ab7565b838801955050505b50505092915050565b6000611af38284611a64565b915081905092915050565b7f4e487b7100000000000000000000000000000000000000000000000000000000600052601160045260246000fd5b6000819050919050565b6000611b4282611b2d565b91507fffffffffffffffffffffffffffffffffffffffffffffffffffffffffffffffff8203611b7457611b73611afe565b5b600182019050919050565b60008190508160005260206000209050919050565b60006020601f8301049050919050565b600082821b905092915050565b600060088302611be17fffffffffffffffffffffffffffffffffffffffffffffffffffffffffffffffff82611ba4565b611beb8683611ba4565b95508019841693508086168417925050509392505050565b6000819050919050565b6000611c28611c23611c1e84611b2d565b611c03565b611b2d565b9050919050565b6000819050919050565b611c4283611c0d565b611c56611c4e82611c2f565b848454611bb1565b825550505050565b600090565b611c6b611c5e565b611c76818484611c39565b505050565b5b81811015611c9a57611c8f600082611c63565b600181019050611c7c565b5050565b601f821115611cdf57611cb081611b7f565b611cb984611b94565b81016020851015611cc8578190505b611cdc611cd485611b94565b830182611c7b565b50505b505050565b600082821c905092915050565b6000611d0260001984600802611ce4565b1980831691505092915050565b6000611d1b8383611cf1565b9150826002028217905092915050565b611d348261129d565b67ffffffffffffffff811115611d4d57611d4c611483565b5b611d5782546119e4565b611d62828285611c9e565b600060209050601f831160018114611d955760008415611d83578287015190505b611d8d8582611d0f565b865550611df5565b601f198416611da386611b7f565b60005b82811015611dcb57848901518255600182019150602085019450602081019050611da6565b86831015611de85784890151611de4601f891682611cf1565b8355505b6001600288020188555050505b505050505050565b7f5573657220616c72656164792065786973747300000000000000000000000000600082015250565b6000611e3360138361167d565b9150611e3e82611dfd565b602082019050919050565b60006020820190508181036000830152611e6281611e26565b905091905056fea2646970667358221220ed5d8be8df8cadd0663732496a0b700e8dd4fe0743bc34030b23a65f2076566064736f6c63430008120033",
  "immutableReferences": {},
  "source": "// SPDX-License-Identifier: MIT\r\npragma solidity ^0.8.0;\r\n\r\ncontract Certification{\r\n    struct User {\r\n        string id;\r\n        UserType userType;\r\n        Certificate[] certificates;\r\n        string[] sharedCertificates;\r\n    }\r\n\r\n    enum UserType { Issuer, Holder, Verifier , None }\r\n\r\n    struct Certificate {\r\n        string certificateId;\r\n        string certificateDetail;\r\n        address Issuer;\r\n        bool verified;\r\n    }\r\n\r\n    mapping(address => User) private users;\r\n\r\n\r\n    function registerUser(address userAddress, string memory id , UserType userType) public {\r\n        require(bytes(users[userAddress].id).length == 0, \"User already exists\");\r\n\r\n        User storage user = users[userAddress];\r\n        user.id = id;\r\n        user.userType = userType;\r\n    }\r\n\r\n    function issueCertificate(address userAddress, string memory certificateId,string memory certificateDetail,string memory id , UserType userType ) public {\r\n      \r\n      if (bytes(users[userAddress].id).length == 0) {\r\n        registerUser(userAddress, id, userType);\r\n    }\r\n  \r\n        User storage user = users[userAddress];\r\n        Certificate memory certificate;\r\n        certificate.certificateId = certificateId;\r\n        certificate.Issuer = msg.sender;\r\n        certificate.certificateDetail = certificateDetail;\r\n         user.certificates.push(certificate);\r\n\r\n    \r\n      \r\n    }\r\n    function verifyCertificate(address userAddress, string memory certificateId) public view returns (bool) {\r\n         User storage user = users[userAddress];\r\n        Certificate[] storage certificates = user.certificates;\r\n        bool verifyed = false;\r\n        for (uint i = 0; i < certificates.length; i++) {\r\n            if (keccak256(bytes(certificates[i].certificateId)) == keccak256(bytes(certificateId))) {\r\n                verifyed = true;\r\n                 break;\r\n            }\r\n        }\r\n\r\n        return verifyed;\r\n    }\r\n\r\n    function getUser(address userAddress) public view returns (string memory, UserType) {\r\n        User storage user = users[userAddress];\r\n        if (bytes(users[userAddress].id).length > 0){\r\n        return (user.id, user.userType);\r\n        }\r\n        return (\"0\" ,UserType.None );\r\n    }\r\n\r\n    function getUserCertificates(address userAddress) public view returns (Certificate[] memory) {\r\n        if (bytes(users[userAddress].id).length == 0) {\r\n        return new Certificate[](0);\r\n    }\r\n\r\n    User storage user = users[userAddress];\r\n    return user.certificates;\r\n    \r\n    }\r\n\r\n\r\n     function getUserCertificateById(address userAddress ,string memory certificateId) public view returns (Certificate[] memory) {\r\n        if (bytes(users[userAddress].id).length == 0) {\r\n        return new Certificate[](0);\r\n    }\r\n\r\n        User storage user = users[userAddress];\r\n        Certificate[] storage certificates = user.certificates;\r\n        Certificate[] memory result;\r\n\r\n        for (uint i = 0; i < certificates.length; i++) {\r\n            if (keccak256(bytes(certificates[i].certificateId)) == keccak256(bytes(certificateId))) {\r\n                 result = new Certificate[](1);\r\n            result[0] = certificates[i];\r\n            return result;\r\n            }\r\n      \r\n        }\r\n        return new Certificate[](0);   \r\n    }\r\n\r\n    function shareCertificate(string memory certificateId) public {\r\n\r\n        User storage user = users[msg.sender];\r\n        user.sharedCertificates.push(certificateId);\r\n        \r\n   \r\n    }\r\n\r\n    function checkSharedCertificate(string memory certificateId) public  view returns (bool) {\r\n   \r\n        User storage user = users[msg.sender];\r\n        bool isShared = false;\r\n        for (uint i = 0; i < user.sharedCertificates.length; i++) {\r\n        if (keccak256(bytes(user.sharedCertificates[i])) == keccak256(bytes(certificateId)))  {\r\n            isShared = true;\r\n            break;\r\n            }\r\n        }\r\n        return isShared;\r\n    }\r\n\r\n    function checkCertificateWithUser(string memory certificateId) public  view returns (bool) {\r\n       \r\n             User storage user = users[msg.sender];\r\n            Certificate[] storage certificates = user.certificates;\r\n            bool isCorrect = false;\r\n\r\n            for (uint i = 0; i < certificates.length; i++) {\r\n            if (keccak256(bytes(certificates[i].certificateId)) == keccak256(bytes(certificateId))) {\r\n                  isCorrect = true;\r\n                break;\r\n            }\r\n            \r\n           \r\n        }\r\n    return isCorrect;\r\n    }\r\n    \r\n    function getSharedCertificates(address userAddress) public view returns (string[] memory) {\r\n        User storage user = users[userAddress];\r\n        return user.sharedCertificates;\r\n    }\r\n}",
  "sourcePath": "C:\\blockchain_assest\\blockchain-certificates-issuer\\src\\portals\\truffle\\contracts\\Certification.sol",
  "compiler": {
    "name": "solc",
    "version": "0.8.18+commit.87f61d96.Emscripten.clang"
  },
  "schemaVersion": "3.4.14",
  "updatedAt": "2023-08-03T06:43:28.872Z",
  "networkType": "ethereum",
  "devdoc": {
    "kind": "dev",
    "methods": {},
    "version": 1
  },
  "userdoc": {
    "kind": "user",
    "methods": {},
    "version": 1
  }
}