{
  "contractName": "Certification",
  "abi": [
    {
      "inputs": [
        {
          "internalType": "address",
          "name": "userAddress",
          "type": "address"
        },
        {
          "internalType": "string",
          "name": "id",
          "type": "string"
        },
        {
          "internalType": "enum Certification.UserType",
          "name": "userType",
          "type": "uint8"
        }
      ],
      "name": "registerUser",
      "outputs": [],
      "stateMutability": "nonpayable",
      "type": "function"
    },
    {
      "inputs": [
        {
          "internalType": "address",
          "name": "userAddress",
          "type": "address"
        },
        {
          "internalType": "string",
          "name": "certificateId",
          "type": "string"
        },
        {
          "internalType": "string",
          "name": "id",
          "type": "string"
        },
        {
          "internalType": "enum Certification.UserType",
          "name": "userType",
          "type": "uint8"
        }
      ],
      "name": "issueCertificate",
      "outputs": [],
      "stateMutability": "nonpayable",
      "type": "function"
    },
    {
      "inputs": [
        {
          "internalType": "address",
          "name": "userAddress",
          "type": "address"
        },
        {
          "internalType": "string",
          "name": "certificateId",
          "type": "string"
        }
      ],
      "name": "verifyCertificate",
      "outputs": [
        {
          "internalType": "bool",
          "name": "",
          "type": "bool"
        }
      ],
      "stateMutability": "view",
      "type": "function",
      "constant": true
    },
    {
      "inputs": [
        {
          "internalType": "address",
          "name": "userAddress",
          "type": "address"
        }
      ],
      "name": "getUser",
      "outputs": [
        {
          "internalType": "string",
          "name": "",
          "type": "string"
        },
        {
          "internalType": "enum Certification.UserType",
          "name": "",
          "type": "uint8"
        }
      ],
      "stateMutability": "view",
      "type": "function",
      "constant": true
    },
    {
      "inputs": [
        {
          "internalType": "address",
          "name": "userAddress",
          "type": "address"
        }
      ],
      "name": "getUserCertificates",
      "outputs": [
        {
          "components": [
            {
              "internalType": "string",
              "name": "certificateId",
              "type": "string"
            },
            {
              "internalType": "address",
              "name": "Issuer",
              "type": "address"
            },
            {
              "internalType": "bool",
              "name": "verified",
              "type": "bool"
            }
          ],
          "internalType": "struct Certification.Certificate[]",
          "name": "",
          "type": "tuple[]"
        }
      ],
      "stateMutability": "view",
      "type": "function",
      "constant": true
    },
    {
      "inputs": [
        {
          "internalType": "string",
          "name": "certificateId",
          "type": "string"
        }
      ],
      "name": "shareCertificate",
      "outputs": [],
      "stateMutability": "nonpayable",
      "type": "function"
    },
    {
      "inputs": [
        {
          "internalType": "string",
          "name": "certificateId",
          "type": "string"
        }
      ],
      "name": "checkSharedCertificate",
      "outputs": [
        {
          "internalType": "bool",
          "name": "",
          "type": "bool"
        }
      ],
      "stateMutability": "view",
      "type": "function",
      "constant": true
    },
    {
      "inputs": [
        {
          "internalType": "string",
          "name": "certificateId",
          "type": "string"
        }
      ],
      "name": "checkCertificateWithUser",
      "outputs": [
        {
          "internalType": "bool",
          "name": "",
          "type": "bool"
        }
      ],
      "stateMutability": "view",
      "type": "function",
      "constant": true
    },
    {
      "inputs": [
        {
          "internalType": "address",
          "name": "userAddress",
          "type": "address"
        }
      ],
      "name": "getSharedCertificates",
      "outputs": [
        {
          "internalType": "string[]",
          "name": "",
          "type": "string[]"
        }
      ],
      "stateMutability": "view",
      "type": "function",
      "constant": true
    }
  ],
  "bytecode": "0x608060405234801561001057600080fd5b50611955806100206000396000f3fe608060405234801561001057600080fd5b50600436106100935760003560e01c806381efad241161006657806381efad241461014557806393ef2ca114610161578063cdcdc24d14610191578063f83f8ead146101ad578063fac4b076146101dd57610093565b80630385bd181461009857806332cc82b3146100c857806366b56df5146100f85780636f77926b14610114575b600080fd5b6100b260048036038101906100ad9190610d44565b61020d565b6040516100bf9190610f3d565b60405180910390f35b6100e260048036038101906100dd9190611094565b610468565b6040516100ef91906110ff565b60405180910390f35b610112600480360381019061010d919061111a565b610532565b005b61012e60048036038101906101299190610d44565b6105af565b60405161013c929190611224565b60405180910390f35b61015f600480360381019061015a9190611279565b61073a565b005b61017b60048036038101906101769190610d44565b610850565b60405161018891906113aa565b60405180910390f35b6101ab60048036038101906101a691906113cc565b610970565b005b6101c760048036038101906101c2919061111a565b610b11565b6040516101d491906110ff565b60405180910390f35b6101f760048036038101906101f2919061111a565b610bda565b60405161020491906110ff565b60405180910390f35b606060008060008473ffffffffffffffffffffffffffffffffffffffff1673ffffffffffffffffffffffffffffffffffffffff168152602001908152602001600020600001805461025d9061149a565b9050036102c057600067ffffffffffffffff81111561027f5761027e610f69565b5b6040519080825280602002602001820160405280156102b857816020015b6102a5610c99565b81526020019060019003908161029d5790505b509050610463565b60008060008473ffffffffffffffffffffffffffffffffffffffff1673ffffffffffffffffffffffffffffffffffffffff168152602001908152602001600020905080600201805480602002602001604051908101604052809291908181526020016000905b8282101561045b57838290600052602060002090600202016040518060600160405290816000820180546103599061149a565b80601f01602080910402602001604051908101604052809291908181526020018280546103859061149a565b80156103d25780601f106103a7576101008083540402835291602001916103d2565b820191906000526020600020905b8154815290600101906020018083116103b557829003601f168201915b505050505081526020016001820160009054906101000a900473ffffffffffffffffffffffffffffffffffffffff1673ffffffffffffffffffffffffffffffffffffffff1673ffffffffffffffffffffffffffffffffffffffff1681526020016001820160149054906101000a900460ff16151515158152505081526020019060010190610326565b505050509150505b919050565b6000806000808573ffffffffffffffffffffffffffffffffffffffff1673ffffffffffffffffffffffffffffffffffffffff168152602001908152602001600020905060008160020190506000805b82805490508110156105255785805190602001208382815481106104de576104dd6114cb565b5b90600052602060002090600202016000016040516104fc919061159d565b6040518091039020036105125760019150610525565b808061051d906115ed565b9150506104b7565b5080935050505092915050565b60008060003373ffffffffffffffffffffffffffffffffffffffff1673ffffffffffffffffffffffffffffffffffffffff168152602001908152602001600020905080600301829080600181540180825580915050600190039060005260206000200160009091909190915090816105aa91906117e1565b505050565b60606000806000808573ffffffffffffffffffffffffffffffffffffffff1673ffffffffffffffffffffffffffffffffffffffff168152602001908152602001600020905060008060008673ffffffffffffffffffffffffffffffffffffffff1673ffffffffffffffffffffffffffffffffffffffff16815260200190815260200160002060000180546106429061149a565b905011156106f657806000018160010160009054906101000a900460ff1681805461066c9061149a565b80601f01602080910402602001604051908101604052809291908181526020018280546106989061149a565b80156106e55780601f106106ba576101008083540402835291602001916106e5565b820191906000526020600020905b8154815290600101906020018083116106c857829003601f168201915b505050505091509250925050610735565b60036040518060400160405280600181526020017f30000000000000000000000000000000000000000000000000000000000000008152509092509250505b915091565b60008060008573ffffffffffffffffffffffffffffffffffffffff1673ffffffffffffffffffffffffffffffffffffffff16815260200190815260200160002060000180546107889061149a565b9050146107ca576040517f08c379a00000000000000000000000000000000000000000000000000000000081526004016107c1906118ff565b60405180910390fd5b60008060008573ffffffffffffffffffffffffffffffffffffffff1673ffffffffffffffffffffffffffffffffffffffff16815260200190815260200160002090508281600001908161081d91906117e1565b50818160010160006101000a81548160ff02191690836003811115610845576108446111ad565b5b021790555050505050565b606060008060008473ffffffffffffffffffffffffffffffffffffffff1673ffffffffffffffffffffffffffffffffffffffff168152602001908152602001600020905080600301805480602002602001604051908101604052809291908181526020016000905b828210156109645783829060005260206000200180546108d79061149a565b80601f01602080910402602001604051908101604052809291908181526020018280546109039061149a565b80156109505780601f1061092557610100808354040283529160200191610950565b820191906000526020600020905b81548152906001019060200180831161093357829003601f168201915b5050505050815260200190600101906108b8565b50505050915050919050565b60008060008673ffffffffffffffffffffffffffffffffffffffff1673ffffffffffffffffffffffffffffffffffffffff16815260200190815260200160002060000180546109be9061149a565b9050036109d1576109d084838361073a565b5b60008060008673ffffffffffffffffffffffffffffffffffffffff1673ffffffffffffffffffffffffffffffffffffffff1681526020019081526020016000209050610a1b610c99565b84816000018190525033816020019073ffffffffffffffffffffffffffffffffffffffff16908173ffffffffffffffffffffffffffffffffffffffff1681525050816002018190806001815401808255809150506001900390600052602060002090600202016000909190919091506000820151816000019081610a9f91906117e1565b5060208201518160010160006101000a81548173ffffffffffffffffffffffffffffffffffffffff021916908373ffffffffffffffffffffffffffffffffffffffff16021790555060408201518160010160146101000a81548160ff0219169083151502179055505050505050505050565b6000806000803373ffffffffffffffffffffffffffffffffffffffff1673ffffffffffffffffffffffffffffffffffffffff168152602001908152602001600020905060008160020190506000805b8280549050811015610bce578580519060200120838281548110610b8757610b866114cb565b5b9060005260206000209060020201600001604051610ba5919061159d565b604051809103902003610bbb5760019150610bce565b8080610bc6906115ed565b915050610b60565b50809350505050919050565b6000806000803373ffffffffffffffffffffffffffffffffffffffff1673ffffffffffffffffffffffffffffffffffffffff16815260200190815260200160002090506000805b8260030180549050811015610c8e578480519060200120836003018281548110610c4e57610c4d6114cb565b5b90600052602060002001604051610c65919061159d565b604051809103902003610c7b5760019150610c8e565b8080610c86906115ed565b915050610c21565b508092505050919050565b604051806060016040528060608152602001600073ffffffffffffffffffffffffffffffffffffffff1681526020016000151581525090565b6000604051905090565b600080fd5b600080fd5b600073ffffffffffffffffffffffffffffffffffffffff82169050919050565b6000610d1182610ce6565b9050919050565b610d2181610d06565b8114610d2c57600080fd5b50565b600081359050610d3e81610d18565b92915050565b600060208284031215610d5a57610d59610cdc565b5b6000610d6884828501610d2f565b91505092915050565b600081519050919050565b600082825260208201905092915050565b6000819050602082019050919050565b600081519050919050565b600082825260208201905092915050565b60005b83811015610dd7578082015181840152602081019050610dbc565b60008484015250505050565b6000601f19601f8301169050919050565b6000610dff82610d9d565b610e098185610da8565b9350610e19818560208601610db9565b610e2281610de3565b840191505092915050565b610e3681610d06565b82525050565b60008115159050919050565b610e5181610e3c565b82525050565b60006060830160008301518482036000860152610e748282610df4565b9150506020830151610e896020860182610e2d565b506040830151610e9c6040860182610e48565b508091505092915050565b6000610eb38383610e57565b905092915050565b6000602082019050919050565b6000610ed382610d71565b610edd8185610d7c565b935083602082028501610eef85610d8d565b8060005b85811015610f2b5784840389528151610f0c8582610ea7565b9450610f1783610ebb565b925060208a01995050600181019050610ef3565b50829750879550505050505092915050565b60006020820190508181036000830152610f578184610ec8565b905092915050565b600080fd5b600080fd5b7f4e487b7100000000000000000000000000000000000000000000000000000000600052604160045260246000fd5b610fa182610de3565b810181811067ffffffffffffffff82111715610fc057610fbf610f69565b5b80604052505050565b6000610fd3610cd2565b9050610fdf8282610f98565b919050565b600067ffffffffffffffff821115610fff57610ffe610f69565b5b61100882610de3565b9050602081019050919050565b82818337600083830152505050565b600061103761103284610fe4565b610fc9565b90508281526020810184848401111561105357611052610f64565b5b61105e848285611015565b509392505050565b600082601f83011261107b5761107a610f5f565b5b813561108b848260208601611024565b91505092915050565b600080604083850312156110ab576110aa610cdc565b5b60006110b985828601610d2f565b925050602083013567ffffffffffffffff8111156110da576110d9610ce1565b5b6110e685828601611066565b9150509250929050565b6110f981610e3c565b82525050565b600060208201905061111460008301846110f0565b92915050565b6000602082840312156111305761112f610cdc565b5b600082013567ffffffffffffffff81111561114e5761114d610ce1565b5b61115a84828501611066565b91505092915050565b600082825260208201905092915050565b600061117f82610d9d565b6111898185611163565b9350611199818560208601610db9565b6111a281610de3565b840191505092915050565b7f4e487b7100000000000000000000000000000000000000000000000000000000600052602160045260246000fd5b600481106111ed576111ec6111ad565b5b50565b60008190506111fe826111dc565b919050565b600061120e826111f0565b9050919050565b61121e81611203565b82525050565b6000604082019050818103600083015261123e8185611174565b905061124d6020830184611215565b9392505050565b6004811061126157600080fd5b50565b60008135905061127381611254565b92915050565b60008060006060848603121561129257611291610cdc565b5b60006112a086828701610d2f565b935050602084013567ffffffffffffffff8111156112c1576112c0610ce1565b5b6112cd86828701611066565b92505060406112de86828701611264565b9150509250925092565b600081519050919050565b600082825260208201905092915050565b6000819050602082019050919050565b60006113208383610df4565b905092915050565b6000602082019050919050565b6000611340826112e8565b61134a81856112f3565b93508360208202850161135c85611304565b8060005b8581101561139857848403895281516113798582611314565b945061138483611328565b925060208a01995050600181019050611360565b50829750879550505050505092915050565b600060208201905081810360008301526113c48184611335565b905092915050565b600080600080608085870312156113e6576113e5610cdc565b5b60006113f487828801610d2f565b945050602085013567ffffffffffffffff81111561141557611414610ce1565b5b61142187828801611066565b935050604085013567ffffffffffffffff81111561144257611441610ce1565b5b61144e87828801611066565b925050606061145f87828801611264565b91505092959194509250565b7f4e487b7100000000000000000000000000000000000000000000000000000000600052602260045260246000fd5b600060028204905060018216806114b257607f821691505b6020821081036114c5576114c461146b565b5b50919050565b7f4e487b7100000000000000000000000000000000000000000000000000000000600052603260045260246000fd5b600081905092915050565b60008190508160005260206000209050919050565b600081546115278161149a565b61153181866114fa565b9450600182166000811461154c576001811461156157611594565b60ff1983168652811515820286019350611594565b61156a85611505565b60005b8381101561158c5781548189015260018201915060208101905061156d565b838801955050505b50505092915050565b60006115a9828461151a565b915081905092915050565b7f4e487b7100000000000000000000000000000000000000000000000000000000600052601160045260246000fd5b6000819050919050565b60006115f8826115e3565b91507fffffffffffffffffffffffffffffffffffffffffffffffffffffffffffffffff820361162a576116296115b4565b5b600182019050919050565b60008190508160005260206000209050919050565b60006020601f8301049050919050565b600082821b905092915050565b6000600883026116977fffffffffffffffffffffffffffffffffffffffffffffffffffffffffffffffff8261165a565b6116a1868361165a565b95508019841693508086168417925050509392505050565b6000819050919050565b60006116de6116d96116d4846115e3565b6116b9565b6115e3565b9050919050565b6000819050919050565b6116f8836116c3565b61170c611704826116e5565b848454611667565b825550505050565b600090565b611721611714565b61172c8184846116ef565b505050565b5b8181101561175057611745600082611719565b600181019050611732565b5050565b601f8211156117955761176681611635565b61176f8461164a565b8101602085101561177e578190505b61179261178a8561164a565b830182611731565b50505b505050565b600082821c905092915050565b60006117b86000198460080261179a565b1980831691505092915050565b60006117d183836117a7565b9150826002028217905092915050565b6117ea82610d9d565b67ffffffffffffffff81111561180357611802610f69565b5b61180d825461149a565b611818828285611754565b600060209050601f83116001811461184b5760008415611839578287015190505b61184385826117c5565b8655506118ab565b601f19841661185986611635565b60005b828110156118815784890151825560018201915060208501945060208101905061185c565b8683101561189e578489015161189a601f8916826117a7565b8355505b6001600288020188555050505b505050505050565b7f5573657220616c72656164792065786973747300000000000000000000000000600082015250565b60006118e9601383611163565b91506118f4826118b3565b602082019050919050565b60006020820190508181036000830152611918816118dc565b905091905056fea2646970667358221220cf1c3d87b57c63af09b1bb71f5e8e42f904eef73b3119236ed6576359e2dbd8c64736f6c63430008120033",
  "immutableReferences": {},
  "source": "// SPDX-License-Identifier: MIT\r\npragma solidity ^0.8.0;\r\n\r\ncontract Certification{\r\n    struct User {\r\n        string id;\r\n        UserType userType;\r\n        Certificate[] certificates;\r\n        string[] sharedCertificates;\r\n    }\r\n\r\n    enum UserType { Issuer, Holder, Verifier , None }\r\n\r\n    struct Certificate {\r\n        string certificateId;\r\n        address Issuer;\r\n        bool verified;\r\n    }\r\n\r\n    mapping(address => User) private users;\r\n\r\n\r\n    function registerUser(address userAddress, string memory id , UserType userType) public {\r\n        require(bytes(users[userAddress].id).length == 0, \"User already exists\");\r\n\r\n        User storage user = users[userAddress];\r\n        user.id = id;\r\n        user.userType = userType;\r\n    }\r\n\r\n    function issueCertificate(address userAddress, string memory certificateId,string memory id , UserType userType ) public {\r\n      \r\n      if (bytes(users[userAddress].id).length == 0) {\r\n        registerUser(userAddress, id, userType);\r\n    }\r\n  \r\n        User storage user = users[userAddress];\r\n        Certificate memory certificate;\r\n        certificate.certificateId = certificateId;\r\n        certificate.Issuer = msg.sender;\r\n\r\n         user.certificates.push(certificate);\r\n\r\n    \r\n      \r\n    }\r\n    function verifyCertificate(address userAddress, string memory certificateId) public view returns (bool) {\r\n         User storage user = users[userAddress];\r\n        Certificate[] storage certificates = user.certificates;\r\n        bool verifyed = false;\r\n        for (uint i = 0; i < certificates.length; i++) {\r\n            if (keccak256(bytes(certificates[i].certificateId)) == keccak256(bytes(certificateId))) {\r\n                verifyed = true;\r\n                 break;\r\n            }\r\n        }\r\n\r\n        return verifyed;\r\n    }\r\n\r\n    function getUser(address userAddress) public view returns (string memory, UserType) {\r\n        User storage user = users[userAddress];\r\n        if (bytes(users[userAddress].id).length > 0){\r\n        return (user.id, user.userType);\r\n        }\r\n        return (\"0\" ,UserType.None );\r\n    }\r\n\r\n    function getUserCertificates(address userAddress) public view returns (Certificate[] memory) {\r\n        if (bytes(users[userAddress].id).length == 0) {\r\n        return new Certificate[](0);\r\n    }\r\n\r\n    User storage user = users[userAddress];\r\n    return user.certificates;\r\n    \r\n    }\r\n\r\n    function shareCertificate(string memory certificateId) public {\r\n\r\n        User storage user = users[msg.sender];\r\n        user.sharedCertificates.push(certificateId);\r\n        \r\n   \r\n    }\r\n\r\n    function checkSharedCertificate(string memory certificateId) public  view returns (bool) {\r\n   \r\n        User storage user = users[msg.sender];\r\n        bool isShared = false;\r\n        for (uint i = 0; i < user.sharedCertificates.length; i++) {\r\n        if (keccak256(bytes(user.sharedCertificates[i])) == keccak256(bytes(certificateId)))  {\r\n            isShared = true;\r\n            break;\r\n            }\r\n        }\r\n        return isShared;\r\n    }\r\n\r\n    function checkCertificateWithUser(string memory certificateId) public  view returns (bool) {\r\n       \r\n             User storage user = users[msg.sender];\r\n            Certificate[] storage certificates = user.certificates;\r\n            bool isCorrect = false;\r\n\r\n            for (uint i = 0; i < certificates.length; i++) {\r\n            if (keccak256(bytes(certificates[i].certificateId)) == keccak256(bytes(certificateId))) {\r\n                  isCorrect = true;\r\n                break;\r\n            }\r\n            \r\n           \r\n        }\r\n    return isCorrect;\r\n    }\r\n    \r\n    function getSharedCertificates(address userAddress) public view returns (string[] memory) {\r\n        User storage user = users[userAddress];\r\n        return user.sharedCertificates;\r\n    }\r\n}",
  "sourcePath": "D:\\certificates-issuer-share-certificate\\blockchain-certificates-issuer\\src\\portals\\truffle\\contracts\\Certification.sol",
  "compiler": {
    "name": "solc",
    "version": "0.8.18+commit.87f61d96.Emscripten.clang"
  },
  "schemaVersion": "3.4.14",
  "updatedAt": "2023-07-11T14:39:02.830Z",
  "networkType": "ethereum",
  "devdoc": {
    "kind": "dev",
    "methods": {},
    "version": 1
  },
  "userdoc": {
    "kind": "user",
    "methods": {},
    "version": 1
  }
}