{
  "contractName": "Certification",
  "abi": [
    {
      "inputs": [
        {
          "internalType": "address",
          "name": "userAddress",
          "type": "address"
        },
        {
          "internalType": "string",
          "name": "id",
          "type": "string"
        },
        {
          "internalType": "enum Certification.UserType",
          "name": "userType",
          "type": "uint8"
        }
      ],
      "name": "registerUser",
      "outputs": [],
      "stateMutability": "nonpayable",
      "type": "function"
    },
    {
      "inputs": [
        {
          "internalType": "address",
          "name": "userAddress",
          "type": "address"
        },
        {
          "internalType": "string",
          "name": "certificateId",
          "type": "string"
        },
        {
          "internalType": "string",
          "name": "id",
          "type": "string"
        },
        {
          "internalType": "enum Certification.UserType",
          "name": "userType",
          "type": "uint8"
        }
      ],
      "name": "issueCertificate",
      "outputs": [],
      "stateMutability": "nonpayable",
      "type": "function"
    },
    {
      "inputs": [
        {
          "internalType": "address",
          "name": "userAddress",
          "type": "address"
        },
        {
          "internalType": "string",
          "name": "certificateId",
          "type": "string"
        }
      ],
      "name": "verifyCertificate",
      "outputs": [],
      "stateMutability": "nonpayable",
      "type": "function"
    },
    {
      "inputs": [
        {
          "internalType": "address",
          "name": "userAddress",
          "type": "address"
        }
      ],
      "name": "getUser",
      "outputs": [
        {
          "internalType": "string",
          "name": "",
          "type": "string"
        },
        {
          "internalType": "enum Certification.UserType",
          "name": "",
          "type": "uint8"
        }
      ],
      "stateMutability": "view",
      "type": "function",
      "constant": true
    },
    {
      "inputs": [
        {
          "internalType": "address",
          "name": "userAddress",
          "type": "address"
        }
      ],
      "name": "getUserCertificates",
      "outputs": [
        {
          "components": [
            {
              "internalType": "string",
              "name": "certificateId",
              "type": "string"
            },
            {
              "internalType": "address",
              "name": "Issuer",
              "type": "address"
            },
            {
              "internalType": "bool",
              "name": "verified",
              "type": "bool"
            }
          ],
          "internalType": "struct Certification.Certificate[]",
          "name": "",
          "type": "tuple[]"
        }
      ],
      "stateMutability": "view",
      "type": "function",
      "constant": true
    },
    {
      "inputs": [
        {
          "internalType": "string",
          "name": "certificateId",
          "type": "string"
        }
      ],
      "name": "shareCertificate",
      "outputs": [],
      "stateMutability": "nonpayable",
      "type": "function"
    },
    {
      "inputs": [
        {
          "internalType": "string",
          "name": "certificateId",
          "type": "string"
        }
      ],
      "name": "checkSharedCertificate",
      "outputs": [
        {
          "internalType": "bool",
          "name": "",
          "type": "bool"
        }
      ],
      "stateMutability": "view",
      "type": "function",
      "constant": true
    },
    {
      "inputs": [
        {
          "internalType": "string",
          "name": "certificateId",
          "type": "string"
        }
      ],
      "name": "checkCertificateWithUser",
      "outputs": [
        {
          "internalType": "bool",
          "name": "",
          "type": "bool"
        }
      ],
      "stateMutability": "view",
      "type": "function",
      "constant": true
    }
  ],
  "bytecode": "0x608060405234801561001057600080fd5b50611976806100206000396000f3fe608060405234801561001057600080fd5b50600436106100885760003560e01c806381efad241161005b57806381efad2414610126578063cdcdc24d14610142578063f83f8ead1461015e578063fac4b0761461018e57610088565b80630385bd181461008d57806332cc82b3146100bd57806366b56df5146100d95780636f77926b146100f5575b600080fd5b6100a760048036038101906100a29190610d4b565b6101be565b6040516100b49190610f44565b60405180910390f35b6100d760048036038101906100d2919061109b565b610419565b005b6100f360048036038101906100ee91906110f7565b6105c9565b005b61010f600480360381019061010a9190610d4b565b6106d6565b60405161011d929190611201565b60405180910390f35b610140600480360381019061013b9190611256565b610861565b005b61015c600480360381019061015791906112c5565b610977565b005b610178600480360381019061017391906110f7565b610b18565b6040516101859190611373565b60405180910390f35b6101a860048036038101906101a391906110f7565b610be1565b6040516101b59190611373565b60405180910390f35b606060008060008473ffffffffffffffffffffffffffffffffffffffff1673ffffffffffffffffffffffffffffffffffffffff168152602001908152602001600020600001805461020e906113bd565b90500361027157600067ffffffffffffffff8111156102305761022f610f70565b5b60405190808252806020026020018201604052801561026957816020015b610256610ca0565b81526020019060019003908161024e5790505b509050610414565b60008060008473ffffffffffffffffffffffffffffffffffffffff1673ffffffffffffffffffffffffffffffffffffffff168152602001908152602001600020905080600201805480602002602001604051908101604052809291908181526020016000905b8282101561040c578382906000526020600020906002020160405180606001604052908160008201805461030a906113bd565b80601f0160208091040260200160405190810160405280929190818152602001828054610336906113bd565b80156103835780601f1061035857610100808354040283529160200191610383565b820191906000526020600020905b81548152906001019060200180831161036657829003601f168201915b505050505081526020016001820160009054906101000a900473ffffffffffffffffffffffffffffffffffffffff1673ffffffffffffffffffffffffffffffffffffffff1673ffffffffffffffffffffffffffffffffffffffff1681526020016001820160149054906101000a900460ff161515151581525050815260200190600101906102d7565b505050509150505b919050565b6002600381111561042d5761042c61118a565b5b6000808473ffffffffffffffffffffffffffffffffffffffff1673ffffffffffffffffffffffffffffffffffffffff16815260200190815260200160002060010160009054906101000a900460ff16600381111561048e5761048d61118a565b5b146104ce576040517f08c379a00000000000000000000000000000000000000000000000000000000081526004016104c590611460565b60405180910390fd5b60008060008473ffffffffffffffffffffffffffffffffffffffff1673ffffffffffffffffffffffffffffffffffffffff1681526020019081526020016000209050600081600201905060005b81805490508110156105c257838051906020012082828154811061054257610541611480565b5b90600052602060002090600202016000016040516105609190611552565b6040518091039020036105af57600182828154811061058257610581611480565b5b906000526020600020906002020160010160146101000a81548160ff0219169083151502179055506105c2565b80806105ba906115a2565b91505061051b565b5050505050565b60008060003373ffffffffffffffffffffffffffffffffffffffff1673ffffffffffffffffffffffffffffffffffffffff1681526020019081526020016000206000018054610617906113bd565b905014610659576040517f08c379a000000000000000000000000000000000000000000000000000000000815260040161065090611636565b60405180910390fd5b60008060003373ffffffffffffffffffffffffffffffffffffffff1673ffffffffffffffffffffffffffffffffffffffff168152602001908152602001600020905080600301829080600181540180825580915050600190039060005260206000200160009091909190915090816106d19190611802565b505050565b60606000806000808573ffffffffffffffffffffffffffffffffffffffff1673ffffffffffffffffffffffffffffffffffffffff168152602001908152602001600020905060008060008673ffffffffffffffffffffffffffffffffffffffff1673ffffffffffffffffffffffffffffffffffffffff1681526020019081526020016000206000018054610769906113bd565b9050111561081d57806000018160010160009054906101000a900460ff16818054610793906113bd565b80601f01602080910402602001604051908101604052809291908181526020018280546107bf906113bd565b801561080c5780601f106107e15761010080835404028352916020019161080c565b820191906000526020600020905b8154815290600101906020018083116107ef57829003601f168201915b50505050509150925092505061085c565b60036040518060400160405280600181526020017f30000000000000000000000000000000000000000000000000000000000000008152509092509250505b915091565b60008060008573ffffffffffffffffffffffffffffffffffffffff1673ffffffffffffffffffffffffffffffffffffffff16815260200190815260200160002060000180546108af906113bd565b9050146108f1576040517f08c379a00000000000000000000000000000000000000000000000000000000081526004016108e890611920565b60405180910390fd5b60008060008573ffffffffffffffffffffffffffffffffffffffff1673ffffffffffffffffffffffffffffffffffffffff1681526020019081526020016000209050828160000190816109449190611802565b50818160010160006101000a81548160ff0219169083600381111561096c5761096b61118a565b5b021790555050505050565b60008060008673ffffffffffffffffffffffffffffffffffffffff1673ffffffffffffffffffffffffffffffffffffffff16815260200190815260200160002060000180546109c5906113bd565b9050036109d8576109d7848383610861565b5b60008060008673ffffffffffffffffffffffffffffffffffffffff1673ffffffffffffffffffffffffffffffffffffffff1681526020019081526020016000209050610a22610ca0565b84816000018190525033816020019073ffffffffffffffffffffffffffffffffffffffff16908173ffffffffffffffffffffffffffffffffffffffff1681525050816002018190806001815401808255809150506001900390600052602060002090600202016000909190919091506000820151816000019081610aa69190611802565b5060208201518160010160006101000a81548173ffffffffffffffffffffffffffffffffffffffff021916908373ffffffffffffffffffffffffffffffffffffffff16021790555060408201518160010160146101000a81548160ff0219169083151502179055505050505050505050565b6000806000803373ffffffffffffffffffffffffffffffffffffffff1673ffffffffffffffffffffffffffffffffffffffff168152602001908152602001600020905060008160020190506000805b8280549050811015610bd5578580519060200120838281548110610b8e57610b8d611480565b5b9060005260206000209060020201600001604051610bac9190611552565b604051809103902003610bc25760019150610bd5565b8080610bcd906115a2565b915050610b67565b50809350505050919050565b6000806000803373ffffffffffffffffffffffffffffffffffffffff1673ffffffffffffffffffffffffffffffffffffffff16815260200190815260200160002090506000805b8260030180549050811015610c95578480519060200120836003018281548110610c5557610c54611480565b5b90600052602060002001604051610c6c9190611552565b604051809103902003610c825760019150610c95565b8080610c8d906115a2565b915050610c28565b508092505050919050565b604051806060016040528060608152602001600073ffffffffffffffffffffffffffffffffffffffff1681526020016000151581525090565b6000604051905090565b600080fd5b600080fd5b600073ffffffffffffffffffffffffffffffffffffffff82169050919050565b6000610d1882610ced565b9050919050565b610d2881610d0d565b8114610d3357600080fd5b50565b600081359050610d4581610d1f565b92915050565b600060208284031215610d6157610d60610ce3565b5b6000610d6f84828501610d36565b91505092915050565b600081519050919050565b600082825260208201905092915050565b6000819050602082019050919050565b600081519050919050565b600082825260208201905092915050565b60005b83811015610dde578082015181840152602081019050610dc3565b60008484015250505050565b6000601f19601f8301169050919050565b6000610e0682610da4565b610e108185610daf565b9350610e20818560208601610dc0565b610e2981610dea565b840191505092915050565b610e3d81610d0d565b82525050565b60008115159050919050565b610e5881610e43565b82525050565b60006060830160008301518482036000860152610e7b8282610dfb565b9150506020830151610e906020860182610e34565b506040830151610ea36040860182610e4f565b508091505092915050565b6000610eba8383610e5e565b905092915050565b6000602082019050919050565b6000610eda82610d78565b610ee48185610d83565b935083602082028501610ef685610d94565b8060005b85811015610f325784840389528151610f138582610eae565b9450610f1e83610ec2565b925060208a01995050600181019050610efa565b50829750879550505050505092915050565b60006020820190508181036000830152610f5e8184610ecf565b905092915050565b600080fd5b600080fd5b7f4e487b7100000000000000000000000000000000000000000000000000000000600052604160045260246000fd5b610fa882610dea565b810181811067ffffffffffffffff82111715610fc757610fc6610f70565b5b80604052505050565b6000610fda610cd9565b9050610fe68282610f9f565b919050565b600067ffffffffffffffff82111561100657611005610f70565b5b61100f82610dea565b9050602081019050919050565b82818337600083830152505050565b600061103e61103984610feb565b610fd0565b90508281526020810184848401111561105a57611059610f6b565b5b61106584828561101c565b509392505050565b600082601f83011261108257611081610f66565b5b813561109284826020860161102b565b91505092915050565b600080604083850312156110b2576110b1610ce3565b5b60006110c085828601610d36565b925050602083013567ffffffffffffffff8111156110e1576110e0610ce8565b5b6110ed8582860161106d565b9150509250929050565b60006020828403121561110d5761110c610ce3565b5b600082013567ffffffffffffffff81111561112b5761112a610ce8565b5b6111378482850161106d565b91505092915050565b600082825260208201905092915050565b600061115c82610da4565b6111668185611140565b9350611176818560208601610dc0565b61117f81610dea565b840191505092915050565b7f4e487b7100000000000000000000000000000000000000000000000000000000600052602160045260246000fd5b600481106111ca576111c961118a565b5b50565b60008190506111db826111b9565b919050565b60006111eb826111cd565b9050919050565b6111fb816111e0565b82525050565b6000604082019050818103600083015261121b8185611151565b905061122a60208301846111f2565b9392505050565b6004811061123e57600080fd5b50565b60008135905061125081611231565b92915050565b60008060006060848603121561126f5761126e610ce3565b5b600061127d86828701610d36565b935050602084013567ffffffffffffffff81111561129e5761129d610ce8565b5b6112aa8682870161106d565b92505060406112bb86828701611241565b9150509250925092565b600080600080608085870312156112df576112de610ce3565b5b60006112ed87828801610d36565b945050602085013567ffffffffffffffff81111561130e5761130d610ce8565b5b61131a8782880161106d565b935050604085013567ffffffffffffffff81111561133b5761133a610ce8565b5b6113478782880161106d565b925050606061135887828801611241565b91505092959194509250565b61136d81610e43565b82525050565b60006020820190506113886000830184611364565b92915050565b7f4e487b7100000000000000000000000000000000000000000000000000000000600052602260045260246000fd5b600060028204905060018216806113d557607f821691505b6020821081036113e8576113e761138e565b5b50919050565b7f4f6e6c79207665726966696572732063616e207665726966792063657274696660008201527f6963617465730000000000000000000000000000000000000000000000000000602082015250565b600061144a602683611140565b9150611455826113ee565b604082019050919050565b600060208201905081810360008301526114798161143d565b9050919050565b7f4e487b7100000000000000000000000000000000000000000000000000000000600052603260045260246000fd5b600081905092915050565b60008190508160005260206000209050919050565b600081546114dc816113bd565b6114e681866114af565b94506001821660008114611501576001811461151657611549565b60ff1983168652811515820286019350611549565b61151f856114ba565b60005b8381101561154157815481890152600182019150602081019050611522565b838801955050505b50505092915050565b600061155e82846114cf565b915081905092915050565b7f4e487b7100000000000000000000000000000000000000000000000000000000600052601160045260246000fd5b6000819050919050565b60006115ad82611598565b91507fffffffffffffffffffffffffffffffffffffffffffffffffffffffffffffffff82036115df576115de611569565b5b600182019050919050565b7f5573657220646f6573206e6f7420657869737400000000000000000000000000600082015250565b6000611620601383611140565b915061162b826115ea565b602082019050919050565b6000602082019050818103600083015261164f81611613565b9050919050565b60008190508160005260206000209050919050565b60006020601f8301049050919050565b600082821b905092915050565b6000600883026116b87fffffffffffffffffffffffffffffffffffffffffffffffffffffffffffffffff8261167b565b6116c2868361167b565b95508019841693508086168417925050509392505050565b6000819050919050565b60006116ff6116fa6116f584611598565b6116da565b611598565b9050919050565b6000819050919050565b611719836116e4565b61172d61172582611706565b848454611688565b825550505050565b600090565b611742611735565b61174d818484611710565b505050565b5b818110156117715761176660008261173a565b600181019050611753565b5050565b601f8211156117b65761178781611656565b6117908461166b565b8101602085101561179f578190505b6117b36117ab8561166b565b830182611752565b50505b505050565b600082821c905092915050565b60006117d9600019846008026117bb565b1980831691505092915050565b60006117f283836117c8565b9150826002028217905092915050565b61180b82610da4565b67ffffffffffffffff81111561182457611823610f70565b5b61182e82546113bd565b611839828285611775565b600060209050601f83116001811461186c576000841561185a578287015190505b61186485826117e6565b8655506118cc565b601f19841661187a86611656565b60005b828110156118a25784890151825560018201915060208501945060208101905061187d565b868310156118bf57848901516118bb601f8916826117c8565b8355505b6001600288020188555050505b505050505050565b7f5573657220616c72656164792065786973747300000000000000000000000000600082015250565b600061190a601383611140565b9150611915826118d4565b602082019050919050565b60006020820190508181036000830152611939816118fd565b905091905056fea264697066735822122090279a2ed3f9f0c8e818e08ff89e2f5e2b654a2c4273cc6f6b6717ddeb5e962d64736f6c63430008120033",
  "immutableReferences": {},
  "source": "// SPDX-License-Identifier: MIT\r\npragma solidity ^0.8.0;\r\n\r\ncontract Certification{\r\n    struct User {\r\n        string id;\r\n        UserType userType;\r\n        Certificate[] certificates;\r\n        string[] sharedCertificates;\r\n    }\r\n\r\n    enum UserType { Issuer, Holder, Verifier , None }\r\n\r\n    struct Certificate {\r\n        string certificateId;\r\n        address Issuer;\r\n        bool verified;\r\n    }\r\n\r\n    mapping(address => User) private users;\r\n\r\n\r\n    function registerUser(address userAddress, string memory id , UserType userType) public {\r\n        require(bytes(users[userAddress].id).length == 0, \"User already exists\");\r\n\r\n        User storage user = users[userAddress];\r\n        user.id = id;\r\n        user.userType = userType;\r\n    }\r\n\r\n    function issueCertificate(address userAddress, string memory certificateId,string memory id , UserType userType ) public {\r\n      \r\n      if (bytes(users[userAddress].id).length == 0) {\r\n        registerUser(userAddress, id, userType);\r\n    }\r\n  \r\n        User storage user = users[userAddress];\r\n        Certificate memory certificate;\r\n        certificate.certificateId = certificateId;\r\n        certificate.Issuer = msg.sender;\r\n\r\n         user.certificates.push(certificate);\r\n\r\n    \r\n      \r\n    }\r\n    function verifyCertificate(address userAddress, string memory certificateId) public {\r\n        require(users[userAddress].userType == UserType.Verifier, \"Only verifiers can verify certificates\");\r\n\r\n        User storage user = users[userAddress];\r\n        Certificate[] storage certificates = user.certificates;\r\n        \r\n        for (uint i = 0; i < certificates.length; i++) {\r\n            if (keccak256(bytes(certificates[i].certificateId)) == keccak256(bytes(certificateId))) {\r\n                certificates[i].verified = true;\r\n                break;\r\n            }\r\n        }\r\n    }\r\n\r\n    function getUser(address userAddress) public view returns (string memory, UserType) {\r\n        User storage user = users[userAddress];\r\n        if (bytes(users[userAddress].id).length > 0){\r\n        return (user.id, user.userType);\r\n        }\r\n        return (\"0\" ,UserType.None );\r\n    }\r\n\r\n    function getUserCertificates(address userAddress) public view returns (Certificate[] memory) {\r\n        if (bytes(users[userAddress].id).length == 0) {\r\n        return new Certificate[](0);\r\n    }\r\n\r\n    User storage user = users[userAddress];\r\n    return user.certificates;\r\n    \r\n    }\r\n\r\n    function shareCertificate(string memory certificateId) public {\r\n    require(bytes(users[msg.sender].id).length == 0, \"User does not exist\");\r\n\r\n    User storage user = users[msg.sender];\r\n    user.sharedCertificates.push(certificateId);\r\n    }\r\n\r\n    function checkSharedCertificate(string memory certificateId) public  view returns (bool) {\r\n   \r\n        User storage user = users[msg.sender];\r\n        bool isShared = false;\r\n        for (uint i = 0; i < user.sharedCertificates.length; i++) {\r\n        if (keccak256(bytes(user.sharedCertificates[i])) == keccak256(bytes(certificateId)))  {\r\n            isShared = true;\r\n            break;\r\n            }\r\n        }\r\n        return isShared;\r\n    }\r\n\r\n    function checkCertificateWithUser(string memory certificateId) public  view returns (bool) {\r\n       \r\n             User storage user = users[msg.sender];\r\n            Certificate[] storage certificates = user.certificates;\r\n            bool isCorrect = false;\r\n\r\n            for (uint i = 0; i < certificates.length; i++) {\r\n            if (keccak256(bytes(certificates[i].certificateId)) == keccak256(bytes(certificateId))) {\r\n                  isCorrect = true;\r\n                break;\r\n            }\r\n            \r\n           \r\n        }\r\n    return isCorrect;\r\n    }\r\n}",
  "sourcePath": "D:\\certificates-issuer-blockchaon-Funtion\\blockchain-certificates-issuer\\src\\portals\\truffle\\contracts\\Certification.sol",
  "compiler": {
    "name": "solc",
    "version": "0.8.18+commit.87f61d96.Emscripten.clang"
  },
  "schemaVersion": "3.4.14",
  "updatedAt": "2023-06-28T05:32:05.682Z",
  "networkType": "ethereum",
  "devdoc": {
    "kind": "dev",
    "methods": {},
    "version": 1
  },
  "userdoc": {
    "kind": "user",
    "methods": {},
    "version": 1
  }
}