{
  "contractName": "Certification",
  "abi": [
    {
      "inputs": [
        {
          "internalType": "address",
          "name": "userAddress",
          "type": "address"
        },
        {
          "internalType": "string",
          "name": "id",
          "type": "string"
        },
        {
          "internalType": "enum Certification.UserType",
          "name": "userType",
          "type": "uint8"
        }
      ],
      "name": "registerUser",
      "outputs": [],
      "stateMutability": "nonpayable",
      "type": "function"
    },
    {
      "inputs": [
        {
          "internalType": "address",
          "name": "userAddress",
          "type": "address"
        },
        {
          "internalType": "string",
          "name": "certificateId",
          "type": "string"
        },
        {
          "internalType": "string",
          "name": "id",
          "type": "string"
        },
        {
          "internalType": "enum Certification.UserType",
          "name": "userType",
          "type": "uint8"
        }
      ],
      "name": "issueCertificate",
      "outputs": [],
      "stateMutability": "nonpayable",
      "type": "function"
    },
    {
      "inputs": [
        {
          "internalType": "address",
          "name": "userAddress",
          "type": "address"
        },
        {
          "internalType": "string",
          "name": "certificateId",
          "type": "string"
        }
      ],
      "name": "verifyCertificate",
      "outputs": [
        {
          "components": [
            {
              "internalType": "string",
              "name": "certificateId",
              "type": "string"
            },
            {
              "internalType": "address",
              "name": "Issuer",
              "type": "address"
            },
            {
              "internalType": "bool",
              "name": "verified",
              "type": "bool"
            }
          ],
          "internalType": "struct Certification.Certificate[]",
          "name": "",
          "type": "tuple[]"
        }
      ],
      "stateMutability": "nonpayable",
      "type": "function"
    },
    {
      "inputs": [
        {
          "internalType": "address",
          "name": "userAddress",
          "type": "address"
        }
      ],
      "name": "getUser",
      "outputs": [
        {
          "internalType": "string",
          "name": "",
          "type": "string"
        },
        {
          "internalType": "enum Certification.UserType",
          "name": "",
          "type": "uint8"
        }
      ],
      "stateMutability": "view",
      "type": "function",
      "constant": true
    },
    {
      "inputs": [
        {
          "internalType": "address",
          "name": "userAddress",
          "type": "address"
        }
      ],
      "name": "getUserCertificates",
      "outputs": [
        {
          "components": [
            {
              "internalType": "string",
              "name": "certificateId",
              "type": "string"
            },
            {
              "internalType": "address",
              "name": "Issuer",
              "type": "address"
            },
            {
              "internalType": "bool",
              "name": "verified",
              "type": "bool"
            }
          ],
          "internalType": "struct Certification.Certificate[]",
          "name": "",
          "type": "tuple[]"
        }
      ],
      "stateMutability": "view",
      "type": "function",
      "constant": true
    },
    {
      "inputs": [
        {
          "internalType": "string",
          "name": "certificateId",
          "type": "string"
        }
      ],
      "name": "shareCertificate",
      "outputs": [],
      "stateMutability": "nonpayable",
      "type": "function"
    },
    {
      "inputs": [
        {
          "internalType": "string",
          "name": "certificateId",
          "type": "string"
        }
      ],
      "name": "checkSharedCertificate",
      "outputs": [
        {
          "internalType": "bool",
          "name": "",
          "type": "bool"
        }
      ],
      "stateMutability": "view",
      "type": "function",
      "constant": true
    },
    {
      "inputs": [
        {
          "internalType": "string",
          "name": "certificateId",
          "type": "string"
        }
      ],
      "name": "checkCertificateWithUser",
      "outputs": [
        {
          "internalType": "bool",
          "name": "",
          "type": "bool"
        }
      ],
      "stateMutability": "view",
      "type": "function",
      "constant": true
    },
    {
      "inputs": [
        {
          "internalType": "address",
          "name": "userAddress",
          "type": "address"
        }
      ],
      "name": "getSharedCertificates",
      "outputs": [
        {
          "internalType": "string[]",
          "name": "",
          "type": "string[]"
        }
      ],
      "stateMutability": "view",
      "type": "function",
      "constant": true
    }
  ],
  "bytecode": "0x608060405234801561001057600080fd5b50611ae9806100206000396000f3fe608060405234801561001057600080fd5b50600436106100935760003560e01c806381efad241161006657806381efad241461014557806393ef2ca114610161578063cdcdc24d14610191578063f83f8ead146101ad578063fac4b076146101dd57610093565b80630385bd181461009857806332cc82b3146100c857806366b56df5146100f85780636f77926b14610114575b600080fd5b6100b260048036038101906100ad9190610ed8565b61020d565b6040516100bf91906110d1565b60405180910390f35b6100e260048036038101906100dd9190611228565b610468565b6040516100ef91906110d1565b60405180910390f35b610112600480360381019061010d9190611284565b6106c6565b005b61012e60048036038101906101299190610ed8565b610743565b60405161013c92919061138e565b60405180910390f35b61015f600480360381019061015a91906113e3565b6108ce565b005b61017b60048036038101906101769190610ed8565b6109e4565b6040516101889190611514565b60405180910390f35b6101ab60048036038101906101a69190611536565b610b04565b005b6101c760048036038101906101c29190611284565b610ca5565b6040516101d491906115e4565b60405180910390f35b6101f760048036038101906101f29190611284565b610d6e565b60405161020491906115e4565b60405180910390f35b606060008060008473ffffffffffffffffffffffffffffffffffffffff1673ffffffffffffffffffffffffffffffffffffffff168152602001908152602001600020600001805461025d9061162e565b9050036102c057600067ffffffffffffffff81111561027f5761027e6110fd565b5b6040519080825280602002602001820160405280156102b857816020015b6102a5610e2d565b81526020019060019003908161029d5790505b509050610463565b60008060008473ffffffffffffffffffffffffffffffffffffffff1673ffffffffffffffffffffffffffffffffffffffff168152602001908152602001600020905080600201805480602002602001604051908101604052809291908181526020016000905b8282101561045b57838290600052602060002090600202016040518060600160405290816000820180546103599061162e565b80601f01602080910402602001604051908101604052809291908181526020018280546103859061162e565b80156103d25780601f106103a7576101008083540402835291602001916103d2565b820191906000526020600020905b8154815290600101906020018083116103b557829003601f168201915b505050505081526020016001820160009054906101000a900473ffffffffffffffffffffffffffffffffffffffff1673ffffffffffffffffffffffffffffffffffffffff1673ffffffffffffffffffffffffffffffffffffffff1681526020016001820160149054906101000a900460ff16151515158152505081526020019060010190610326565b505050509150505b919050565b606060008060008573ffffffffffffffffffffffffffffffffffffffff1673ffffffffffffffffffffffffffffffffffffffff1681526020019081526020016000209050600081600201905060005b818054905081101561055e5784805190602001208282815481106104de576104dd61165f565b5b90600052602060002090600202016000016040516104fc9190611731565b60405180910390200361054b57600182828154811061051e5761051d61165f565b5b906000526020600020906002020160010160146101000a81548160ff02191690831515021790555061055e565b808061055690611781565b9150506104b7565b5081600201805480602002602001604051908101604052809291908181526020016000905b828210156106b857838290600052602060002090600202016040518060600160405290816000820180546105b69061162e565b80601f01602080910402602001604051908101604052809291908181526020018280546105e29061162e565b801561062f5780601f106106045761010080835404028352916020019161062f565b820191906000526020600020905b81548152906001019060200180831161061257829003601f168201915b505050505081526020016001820160009054906101000a900473ffffffffffffffffffffffffffffffffffffffff1673ffffffffffffffffffffffffffffffffffffffff1673ffffffffffffffffffffffffffffffffffffffff1681526020016001820160149054906101000a900460ff16151515158152505081526020019060010190610583565b505050509250505092915050565b60008060003373ffffffffffffffffffffffffffffffffffffffff1673ffffffffffffffffffffffffffffffffffffffff1681526020019081526020016000209050806003018290806001815401808255809150506001900390600052602060002001600090919091909150908161073e9190611975565b505050565b60606000806000808573ffffffffffffffffffffffffffffffffffffffff1673ffffffffffffffffffffffffffffffffffffffff168152602001908152602001600020905060008060008673ffffffffffffffffffffffffffffffffffffffff1673ffffffffffffffffffffffffffffffffffffffff16815260200190815260200160002060000180546107d69061162e565b9050111561088a57806000018160010160009054906101000a900460ff168180546108009061162e565b80601f016020809104026020016040519081016040528092919081815260200182805461082c9061162e565b80156108795780601f1061084e57610100808354040283529160200191610879565b820191906000526020600020905b81548152906001019060200180831161085c57829003601f168201915b5050505050915092509250506108c9565b60036040518060400160405280600181526020017f30000000000000000000000000000000000000000000000000000000000000008152509092509250505b915091565b60008060008573ffffffffffffffffffffffffffffffffffffffff1673ffffffffffffffffffffffffffffffffffffffff168152602001908152602001600020600001805461091c9061162e565b90501461095e576040517f08c379a000000000000000000000000000000000000000000000000000000000815260040161095590611a93565b60405180910390fd5b60008060008573ffffffffffffffffffffffffffffffffffffffff1673ffffffffffffffffffffffffffffffffffffffff1681526020019081526020016000209050828160000190816109b19190611975565b50818160010160006101000a81548160ff021916908360038111156109d9576109d8611317565b5b021790555050505050565b606060008060008473ffffffffffffffffffffffffffffffffffffffff1673ffffffffffffffffffffffffffffffffffffffff168152602001908152602001600020905080600301805480602002602001604051908101604052809291908181526020016000905b82821015610af8578382906000526020600020018054610a6b9061162e565b80601f0160208091040260200160405190810160405280929190818152602001828054610a979061162e565b8015610ae45780601f10610ab957610100808354040283529160200191610ae4565b820191906000526020600020905b815481529060010190602001808311610ac757829003601f168201915b505050505081526020019060010190610a4c565b50505050915050919050565b60008060008673ffffffffffffffffffffffffffffffffffffffff1673ffffffffffffffffffffffffffffffffffffffff1681526020019081526020016000206000018054610b529061162e565b905003610b6557610b648483836108ce565b5b60008060008673ffffffffffffffffffffffffffffffffffffffff1673ffffffffffffffffffffffffffffffffffffffff1681526020019081526020016000209050610baf610e2d565b84816000018190525033816020019073ffffffffffffffffffffffffffffffffffffffff16908173ffffffffffffffffffffffffffffffffffffffff1681525050816002018190806001815401808255809150506001900390600052602060002090600202016000909190919091506000820151816000019081610c339190611975565b5060208201518160010160006101000a81548173ffffffffffffffffffffffffffffffffffffffff021916908373ffffffffffffffffffffffffffffffffffffffff16021790555060408201518160010160146101000a81548160ff0219169083151502179055505050505050505050565b6000806000803373ffffffffffffffffffffffffffffffffffffffff1673ffffffffffffffffffffffffffffffffffffffff168152602001908152602001600020905060008160020190506000805b8280549050811015610d62578580519060200120838281548110610d1b57610d1a61165f565b5b9060005260206000209060020201600001604051610d399190611731565b604051809103902003610d4f5760019150610d62565b8080610d5a90611781565b915050610cf4565b50809350505050919050565b6000806000803373ffffffffffffffffffffffffffffffffffffffff1673ffffffffffffffffffffffffffffffffffffffff16815260200190815260200160002090506000805b8260030180549050811015610e22578480519060200120836003018281548110610de257610de161165f565b5b90600052602060002001604051610df99190611731565b604051809103902003610e0f5760019150610e22565b8080610e1a90611781565b915050610db5565b508092505050919050565b604051806060016040528060608152602001600073ffffffffffffffffffffffffffffffffffffffff1681526020016000151581525090565b6000604051905090565b600080fd5b600080fd5b600073ffffffffffffffffffffffffffffffffffffffff82169050919050565b6000610ea582610e7a565b9050919050565b610eb581610e9a565b8114610ec057600080fd5b50565b600081359050610ed281610eac565b92915050565b600060208284031215610eee57610eed610e70565b5b6000610efc84828501610ec3565b91505092915050565b600081519050919050565b600082825260208201905092915050565b6000819050602082019050919050565b600081519050919050565b600082825260208201905092915050565b60005b83811015610f6b578082015181840152602081019050610f50565b60008484015250505050565b6000601f19601f8301169050919050565b6000610f9382610f31565b610f9d8185610f3c565b9350610fad818560208601610f4d565b610fb681610f77565b840191505092915050565b610fca81610e9a565b82525050565b60008115159050919050565b610fe581610fd0565b82525050565b600060608301600083015184820360008601526110088282610f88565b915050602083015161101d6020860182610fc1565b5060408301516110306040860182610fdc565b508091505092915050565b60006110478383610feb565b905092915050565b6000602082019050919050565b600061106782610f05565b6110718185610f10565b93508360208202850161108385610f21565b8060005b858110156110bf57848403895281516110a0858261103b565b94506110ab8361104f565b925060208a01995050600181019050611087565b50829750879550505050505092915050565b600060208201905081810360008301526110eb818461105c565b905092915050565b600080fd5b600080fd5b7f4e487b7100000000000000000000000000000000000000000000000000000000600052604160045260246000fd5b61113582610f77565b810181811067ffffffffffffffff82111715611154576111536110fd565b5b80604052505050565b6000611167610e66565b9050611173828261112c565b919050565b600067ffffffffffffffff821115611193576111926110fd565b5b61119c82610f77565b9050602081019050919050565b82818337600083830152505050565b60006111cb6111c684611178565b61115d565b9050828152602081018484840111156111e7576111e66110f8565b5b6111f28482856111a9565b509392505050565b600082601f83011261120f5761120e6110f3565b5b813561121f8482602086016111b8565b91505092915050565b6000806040838503121561123f5761123e610e70565b5b600061124d85828601610ec3565b925050602083013567ffffffffffffffff81111561126e5761126d610e75565b5b61127a858286016111fa565b9150509250929050565b60006020828403121561129a57611299610e70565b5b600082013567ffffffffffffffff8111156112b8576112b7610e75565b5b6112c4848285016111fa565b91505092915050565b600082825260208201905092915050565b60006112e982610f31565b6112f381856112cd565b9350611303818560208601610f4d565b61130c81610f77565b840191505092915050565b7f4e487b7100000000000000000000000000000000000000000000000000000000600052602160045260246000fd5b6004811061135757611356611317565b5b50565b600081905061136882611346565b919050565b60006113788261135a565b9050919050565b6113888161136d565b82525050565b600060408201905081810360008301526113a881856112de565b90506113b7602083018461137f565b9392505050565b600481106113cb57600080fd5b50565b6000813590506113dd816113be565b92915050565b6000806000606084860312156113fc576113fb610e70565b5b600061140a86828701610ec3565b935050602084013567ffffffffffffffff81111561142b5761142a610e75565b5b611437868287016111fa565b9250506040611448868287016113ce565b9150509250925092565b600081519050919050565b600082825260208201905092915050565b6000819050602082019050919050565b600061148a8383610f88565b905092915050565b6000602082019050919050565b60006114aa82611452565b6114b4818561145d565b9350836020820285016114c68561146e565b8060005b8581101561150257848403895281516114e3858261147e565b94506114ee83611492565b925060208a019950506001810190506114ca565b50829750879550505050505092915050565b6000602082019050818103600083015261152e818461149f565b905092915050565b600080600080608085870312156115505761154f610e70565b5b600061155e87828801610ec3565b945050602085013567ffffffffffffffff81111561157f5761157e610e75565b5b61158b878288016111fa565b935050604085013567ffffffffffffffff8111156115ac576115ab610e75565b5b6115b8878288016111fa565b92505060606115c9878288016113ce565b91505092959194509250565b6115de81610fd0565b82525050565b60006020820190506115f960008301846115d5565b92915050565b7f4e487b7100000000000000000000000000000000000000000000000000000000600052602260045260246000fd5b6000600282049050600182168061164657607f821691505b602082108103611659576116586115ff565b5b50919050565b7f4e487b7100000000000000000000000000000000000000000000000000000000600052603260045260246000fd5b600081905092915050565b60008190508160005260206000209050919050565b600081546116bb8161162e565b6116c5818661168e565b945060018216600081146116e057600181146116f557611728565b60ff1983168652811515820286019350611728565b6116fe85611699565b60005b8381101561172057815481890152600182019150602081019050611701565b838801955050505b50505092915050565b600061173d82846116ae565b915081905092915050565b7f4e487b7100000000000000000000000000000000000000000000000000000000600052601160045260246000fd5b6000819050919050565b600061178c82611777565b91507fffffffffffffffffffffffffffffffffffffffffffffffffffffffffffffffff82036117be576117bd611748565b5b600182019050919050565b60008190508160005260206000209050919050565b60006020601f8301049050919050565b600082821b905092915050565b60006008830261182b7fffffffffffffffffffffffffffffffffffffffffffffffffffffffffffffffff826117ee565b61183586836117ee565b95508019841693508086168417925050509392505050565b6000819050919050565b600061187261186d61186884611777565b61184d565b611777565b9050919050565b6000819050919050565b61188c83611857565b6118a061189882611879565b8484546117fb565b825550505050565b600090565b6118b56118a8565b6118c0818484611883565b505050565b5b818110156118e4576118d96000826118ad565b6001810190506118c6565b5050565b601f821115611929576118fa816117c9565b611903846117de565b81016020851015611912578190505b61192661191e856117de565b8301826118c5565b50505b505050565b600082821c905092915050565b600061194c6000198460080261192e565b1980831691505092915050565b6000611965838361193b565b9150826002028217905092915050565b61197e82610f31565b67ffffffffffffffff811115611997576119966110fd565b5b6119a1825461162e565b6119ac8282856118e8565b600060209050601f8311600181146119df57600084156119cd578287015190505b6119d78582611959565b865550611a3f565b601f1984166119ed866117c9565b60005b82811015611a15578489015182556001820191506020850194506020810190506119f0565b86831015611a325784890151611a2e601f89168261193b565b8355505b6001600288020188555050505b505050505050565b7f5573657220616c72656164792065786973747300000000000000000000000000600082015250565b6000611a7d6013836112cd565b9150611a8882611a47565b602082019050919050565b60006020820190508181036000830152611aac81611a70565b905091905056fea26469706673582212200e2c933fcb9fe883c97aee4c87cd94ebc6800c65c7b947ca5b758944246de14264736f6c63430008120033",
  "immutableReferences": {},
  "source": "// SPDX-License-Identifier: MIT\r\npragma solidity ^0.8.0;\r\n\r\ncontract Certification{\r\n    struct User {\r\n        string id;\r\n        UserType userType;\r\n        Certificate[] certificates;\r\n        string[] sharedCertificates;\r\n    }\r\n\r\n    enum UserType { Issuer, Holder, Verifier , None }\r\n\r\n    struct Certificate {\r\n        string certificateId;\r\n        address Issuer;\r\n        bool verified;\r\n    }\r\n\r\n    mapping(address => User) private users;\r\n\r\n\r\n    function registerUser(address userAddress, string memory id , UserType userType) public {\r\n        require(bytes(users[userAddress].id).length == 0, \"User already exists\");\r\n\r\n        User storage user = users[userAddress];\r\n        user.id = id;\r\n        user.userType = userType;\r\n    }\r\n\r\n    function issueCertificate(address userAddress, string memory certificateId,string memory id , UserType userType ) public {\r\n      \r\n      if (bytes(users[userAddress].id).length == 0) {\r\n        registerUser(userAddress, id, userType);\r\n    }\r\n  \r\n        User storage user = users[userAddress];\r\n        Certificate memory certificate;\r\n        certificate.certificateId = certificateId;\r\n        certificate.Issuer = msg.sender;\r\n\r\n         user.certificates.push(certificate);\r\n\r\n    \r\n      \r\n    }\r\n    function verifyCertificate(address userAddress, string memory certificateId) public returns (Certificate[] memory) {\r\n         User storage user = users[userAddress];\r\n        Certificate[] storage certificates = user.certificates;\r\n\r\n        for (uint i = 0; i < certificates.length; i++) {\r\n            if (keccak256(bytes(certificates[i].certificateId)) == keccak256(bytes(certificateId))) {\r\n                certificates[i].verified = true;\r\n                 break;\r\n            }\r\n        }\r\n\r\n        return user.certificates;\r\n    }\r\n\r\n    function getUser(address userAddress) public view returns (string memory, UserType) {\r\n        User storage user = users[userAddress];\r\n        if (bytes(users[userAddress].id).length > 0){\r\n        return (user.id, user.userType);\r\n        }\r\n        return (\"0\" ,UserType.None );\r\n    }\r\n\r\n    function getUserCertificates(address userAddress) public view returns (Certificate[] memory) {\r\n        if (bytes(users[userAddress].id).length == 0) {\r\n        return new Certificate[](0);\r\n    }\r\n\r\n    User storage user = users[userAddress];\r\n    return user.certificates;\r\n    \r\n    }\r\n\r\n    function shareCertificate(string memory certificateId) public {\r\n\r\n        User storage user = users[msg.sender];\r\n        user.sharedCertificates.push(certificateId);\r\n        \r\n   \r\n    }\r\n\r\n    function checkSharedCertificate(string memory certificateId) public  view returns (bool) {\r\n   \r\n        User storage user = users[msg.sender];\r\n        bool isShared = false;\r\n        for (uint i = 0; i < user.sharedCertificates.length; i++) {\r\n        if (keccak256(bytes(user.sharedCertificates[i])) == keccak256(bytes(certificateId)))  {\r\n            isShared = true;\r\n            break;\r\n            }\r\n        }\r\n        return isShared;\r\n    }\r\n\r\n    function checkCertificateWithUser(string memory certificateId) public  view returns (bool) {\r\n       \r\n             User storage user = users[msg.sender];\r\n            Certificate[] storage certificates = user.certificates;\r\n            bool isCorrect = false;\r\n\r\n            for (uint i = 0; i < certificates.length; i++) {\r\n            if (keccak256(bytes(certificates[i].certificateId)) == keccak256(bytes(certificateId))) {\r\n                  isCorrect = true;\r\n                break;\r\n            }\r\n            \r\n           \r\n        }\r\n    return isCorrect;\r\n    }\r\n    \r\n    function getSharedCertificates(address userAddress) public view returns (string[] memory) {\r\n        User storage user = users[userAddress];\r\n        return user.sharedCertificates;\r\n    }\r\n}",
  "sourcePath": "D:\\certificates-issuer-share-certificate\\blockchain-certificates-issuer\\src\\portals\\truffle\\contracts\\Certification.sol",
  "compiler": {
    "name": "solc",
    "version": "0.8.18+commit.87f61d96.Emscripten.clang"
  },
  "schemaVersion": "3.4.14",
  "updatedAt": "2023-07-05T07:21:12.249Z",
  "networkType": "ethereum",
  "devdoc": {
    "kind": "dev",
    "methods": {},
    "version": 1
  },
  "userdoc": {
    "kind": "user",
    "methods": {},
    "version": 1
  }
}