{
  "contractName": "Certification",
  "abi": [
    {
      "anonymous": false,
      "inputs": [
        {
          "indexed": false,
          "internalType": "bytes32",
          "name": "certificateId",
          "type": "bytes32"
        }
      ],
      "name": "CertificateSaved",
      "type": "event"
    },
    {
      "inputs": [
        {
          "internalType": "bytes32",
          "name": "",
          "type": "bytes32"
        }
      ],
      "name": "certificates",
      "outputs": [
        {
          "internalType": "string",
          "name": "certificateId",
          "type": "string"
        }
      ],
      "stateMutability": "view",
      "type": "function",
      "constant": true
    },
    {
      "inputs": [
        {
          "internalType": "string",
          "name": "_certificateId",
          "type": "string"
        }
      ],
      "name": "saveCertificate",
      "outputs": [],
      "stateMutability": "nonpayable",
      "type": "function"
    },
    {
      "inputs": [
        {
          "internalType": "string",
          "name": "_certificateId",
          "type": "string"
        }
      ],
      "name": "retrieveCertificate",
      "outputs": [
        {
          "internalType": "string",
          "name": "certificateId",
          "type": "string"
        }
      ],
      "stateMutability": "view",
      "type": "function",
      "constant": true
    }
  ],
  "bytecode": "0x608060405234801561001057600080fd5b506108a7806100206000396000f3fe608060405234801561001057600080fd5b50600436106100415760003560e01c80636e18da9c14610046578063742f068814610062578063f37f475e14610092575b600080fd5b610060600480360381019061005b9190610412565b6100c2565b005b61007c60048036038101906100779190610491565b610143565b604051610089919061053d565b60405180910390f35b6100ac60048036038101906100a79190610412565b6101e9565b6040516100b9919061053d565b60405180910390f35b60008180519060200120905060405180602001604052808381525060008083815260200190815260200160002060008201518160000190816101049190610775565b509050507f86d52bdda8b0b1d10b4e70dde3a0780eea75d559fd210761ba7ef31742ea3b2b816040516101379190610856565b60405180910390a15050565b60006020528060005260406000206000915090508060000180546101669061058e565b80601f01602080910402602001604051908101604052809291908181526020018280546101929061058e565b80156101df5780601f106101b4576101008083540402835291602001916101df565b820191906000526020600020905b8154815290600101906020018083116101c257829003601f168201915b5050505050905081565b606060008280519060200120905060008060008381526020019081526020016000206040518060200160405290816000820180546102269061058e565b80601f01602080910402602001604051908101604052809291908181526020018280546102529061058e565b801561029f5780601f106102745761010080835404028352916020019161029f565b820191906000526020600020905b81548152906001019060200180831161028257829003601f168201915b5050505050815250509050806000015192505050919050565b6000604051905090565b600080fd5b600080fd5b600080fd5b600080fd5b6000601f19601f8301169050919050565b7f4e487b7100000000000000000000000000000000000000000000000000000000600052604160045260246000fd5b61031f826102d6565b810181811067ffffffffffffffff8211171561033e5761033d6102e7565b5b80604052505050565b60006103516102b8565b905061035d8282610316565b919050565b600067ffffffffffffffff82111561037d5761037c6102e7565b5b610386826102d6565b9050602081019050919050565b82818337600083830152505050565b60006103b56103b084610362565b610347565b9050828152602081018484840111156103d1576103d06102d1565b5b6103dc848285610393565b509392505050565b600082601f8301126103f9576103f86102cc565b5b81356104098482602086016103a2565b91505092915050565b600060208284031215610428576104276102c2565b5b600082013567ffffffffffffffff811115610446576104456102c7565b5b610452848285016103e4565b91505092915050565b6000819050919050565b61046e8161045b565b811461047957600080fd5b50565b60008135905061048b81610465565b92915050565b6000602082840312156104a7576104a66102c2565b5b60006104b58482850161047c565b91505092915050565b600081519050919050565b600082825260208201905092915050565b60005b838110156104f85780820151818401526020810190506104dd565b60008484015250505050565b600061050f826104be565b61051981856104c9565b93506105298185602086016104da565b610532816102d6565b840191505092915050565b600060208201905081810360008301526105578184610504565b905092915050565b7f4e487b7100000000000000000000000000000000000000000000000000000000600052602260045260246000fd5b600060028204905060018216806105a657607f821691505b6020821081036105b9576105b861055f565b5b50919050565b60008190508160005260206000209050919050565b60006020601f8301049050919050565b600082821b905092915050565b6000600883026106217fffffffffffffffffffffffffffffffffffffffffffffffffffffffffffffffff826105e4565b61062b86836105e4565b95508019841693508086168417925050509392505050565b6000819050919050565b6000819050919050565b600061067261066d61066884610643565b61064d565b610643565b9050919050565b6000819050919050565b61068c83610657565b6106a061069882610679565b8484546105f1565b825550505050565b600090565b6106b56106a8565b6106c0818484610683565b505050565b5b818110156106e4576106d96000826106ad565b6001810190506106c6565b5050565b601f821115610729576106fa816105bf565b610703846105d4565b81016020851015610712578190505b61072661071e856105d4565b8301826106c5565b50505b505050565b600082821c905092915050565b600061074c6000198460080261072e565b1980831691505092915050565b6000610765838361073b565b9150826002028217905092915050565b61077e826104be565b67ffffffffffffffff811115610797576107966102e7565b5b6107a1825461058e565b6107ac8282856106e8565b600060209050601f8311600181146107df57600084156107cd578287015190505b6107d78582610759565b86555061083f565b601f1984166107ed866105bf565b60005b82811015610815578489015182556001820191506020850194506020810190506107f0565b86831015610832578489015161082e601f89168261073b565b8355505b6001600288020188555050505b505050505050565b6108508161045b565b82525050565b600060208201905061086b6000830184610847565b9291505056fea264697066735822122084da5b5ed0ed3a5f4dbbcf0cbe5f675ffd5c62399189be3b0c26b5e996023e1564736f6c63430008120033",
  "immutableReferences": {},
  "source": "// SPDX-License-Identifier: MIT\r\npragma solidity >=0.4.22 <0.9.0;\r\n\r\ncontract Certification {\r\n    struct Certificate {\r\n        string certificateId;\r\n    }\r\n\r\n    mapping(bytes32 => Certificate) public certificates;\r\n\r\n    event CertificateSaved(bytes32 certificateId);\r\n\r\n    function saveCertificate(\r\n        string memory _certificateId\r\n\r\n    ) public {\r\n        bytes32 certificateId = keccak256(bytes(_certificateId));\r\n\r\n\r\n        certificates[certificateId] = Certificate(\r\n            _certificateId\r\n     \r\n        );\r\n\r\n        emit CertificateSaved(certificateId);\r\n    }\r\n\r\n    function retrieveCertificate(string memory _certificateId) public view returns (\r\n        string memory certificateId\r\n\r\n    ) {\r\n        bytes32 certificateIdHash = keccak256(bytes(_certificateId));\r\n        Certificate memory certificate = certificates[certificateIdHash];\r\n\r\n        return (\r\n            certificate.certificateId\r\n        );\r\n    }\r\n}",
  "sourcePath": "D:\\certificates-issuer-blockChainsave\\blockchain-certificates-issuer\\src\\portals\\truffle\\contracts\\Certification.sol",
  "compiler": {
    "name": "solc",
    "version": "0.8.18+commit.87f61d96.Emscripten.clang"
  },
  "schemaVersion": "3.4.14",
  "updatedAt": "2023-06-13T04:37:45.817Z",
  "networkType": "ethereum",
  "devdoc": {
    "kind": "dev",
    "methods": {},
    "version": 1
  },
  "userdoc": {
    "kind": "user",
    "methods": {},
    "version": 1
  }
}