{
  "contractName": "Certification",
  "abi": [
    {
      "inputs": [
        {
          "internalType": "address",
          "name": "userAddress",
          "type": "address"
        },
        {
          "internalType": "string",
          "name": "id",
          "type": "string"
        },
        {
          "internalType": "enum Certification.UserType",
          "name": "userType",
          "type": "uint8"
        }
      ],
      "name": "registerUser",
      "outputs": [],
      "stateMutability": "nonpayable",
      "type": "function"
    },
    {
      "inputs": [
        {
          "internalType": "address",
          "name": "userAddress",
          "type": "address"
        },
        {
          "internalType": "string",
          "name": "certificateId",
          "type": "string"
        },
        {
          "internalType": "string",
          "name": "id",
          "type": "string"
        },
        {
          "internalType": "enum Certification.UserType",
          "name": "userType",
          "type": "uint8"
        }
      ],
      "name": "issueCertificate",
      "outputs": [],
      "stateMutability": "nonpayable",
      "type": "function"
    },
    {
      "inputs": [
        {
          "internalType": "address",
          "name": "userAddress",
          "type": "address"
        },
        {
          "internalType": "string",
          "name": "certificateId",
          "type": "string"
        }
      ],
      "name": "verifyCertificate",
      "outputs": [],
      "stateMutability": "nonpayable",
      "type": "function"
    },
    {
      "inputs": [
        {
          "internalType": "address",
          "name": "userAddress",
          "type": "address"
        }
      ],
      "name": "getUser",
      "outputs": [
        {
          "internalType": "string",
          "name": "",
          "type": "string"
        },
        {
          "internalType": "enum Certification.UserType",
          "name": "",
          "type": "uint8"
        }
      ],
      "stateMutability": "view",
      "type": "function",
      "constant": true
    },
    {
      "inputs": [
        {
          "internalType": "address",
          "name": "userAddress",
          "type": "address"
        }
      ],
      "name": "getUserCertificates",
      "outputs": [
        {
          "components": [
            {
              "internalType": "string",
              "name": "certificateId",
              "type": "string"
            },
            {
              "internalType": "address",
              "name": "Issuer",
              "type": "address"
            },
            {
              "internalType": "bool",
              "name": "verified",
              "type": "bool"
            }
          ],
          "internalType": "struct Certification.Certificate[]",
          "name": "",
          "type": "tuple[]"
        }
      ],
      "stateMutability": "view",
      "type": "function",
      "constant": true
    },
    {
      "inputs": [
        {
          "internalType": "address",
          "name": "userAddress",
          "type": "address"
        },
        {
          "internalType": "string",
          "name": "certificateId",
          "type": "string"
        }
      ],
      "name": "shareCertificate",
      "outputs": [],
      "stateMutability": "nonpayable",
      "type": "function"
    },
    {
      "inputs": [
        {
          "internalType": "address",
          "name": "userAddress",
          "type": "address"
        },
        {
          "internalType": "string",
          "name": "certificateId",
          "type": "string"
        }
      ],
      "name": "checkSharedCertificate",
      "outputs": [
        {
          "internalType": "bool",
          "name": "",
          "type": "bool"
        }
      ],
      "stateMutability": "view",
      "type": "function",
      "constant": true
    },
    {
      "inputs": [
        {
          "internalType": "string",
          "name": "certificateId",
          "type": "string"
        }
      ],
      "name": "checkCertificateWithUser",
      "outputs": [
        {
          "internalType": "bool",
          "name": "",
          "type": "bool"
        }
      ],
      "stateMutability": "view",
      "type": "function",
      "constant": true
    }
  ],
  "bytecode": "0x608060405234801561001057600080fd5b50611a08806100206000396000f3fe608060405234801561001057600080fd5b50600436106100885760003560e01c8063a6986e7d1161005b578063a6986e7d14610126578063cdcdc24d14610156578063edf7348c14610172578063f83f8ead1461018e57610088565b80630385bd181461008d57806332cc82b3146100bd5780636f77926b146100d957806381efad241461010a575b600080fd5b6100a760048036038101906100a29190610ddd565b6101be565b6040516100b49190610fd6565b60405180910390f35b6100d760048036038101906100d2919061112d565b610419565b005b6100f360048036038101906100ee9190610ddd565b6105c9565b60405161010192919061124a565b60405180910390f35b610124600480360381019061011f919061129f565b610754565b005b610140600480360381019061013b919061112d565b61086a565b60405161014d919061131d565b60405180910390f35b610170600480360381019061016b9190611338565b6109ba565b005b61018c6004803603810190610187919061112d565b610b5b565b005b6101a860048036038101906101a391906113d7565b610c69565b6040516101b5919061131d565b60405180910390f35b606060008060008473ffffffffffffffffffffffffffffffffffffffff1673ffffffffffffffffffffffffffffffffffffffff168152602001908152602001600020600001805461020e9061144f565b90500361027157600067ffffffffffffffff8111156102305761022f611002565b5b60405190808252806020026020018201604052801561026957816020015b610256610d32565b81526020019060019003908161024e5790505b509050610414565b60008060008473ffffffffffffffffffffffffffffffffffffffff1673ffffffffffffffffffffffffffffffffffffffff168152602001908152602001600020905080600201805480602002602001604051908101604052809291908181526020016000905b8282101561040c578382906000526020600020906002020160405180606001604052908160008201805461030a9061144f565b80601f01602080910402602001604051908101604052809291908181526020018280546103369061144f565b80156103835780601f1061035857610100808354040283529160200191610383565b820191906000526020600020905b81548152906001019060200180831161036657829003601f168201915b505050505081526020016001820160009054906101000a900473ffffffffffffffffffffffffffffffffffffffff1673ffffffffffffffffffffffffffffffffffffffff1673ffffffffffffffffffffffffffffffffffffffff1681526020016001820160149054906101000a900460ff161515151581525050815260200190600101906102d7565b505050509150505b919050565b6002600381111561042d5761042c6111d3565b5b6000808473ffffffffffffffffffffffffffffffffffffffff1673ffffffffffffffffffffffffffffffffffffffff16815260200190815260200160002060010160009054906101000a900460ff16600381111561048e5761048d6111d3565b5b146104ce576040517f08c379a00000000000000000000000000000000000000000000000000000000081526004016104c5906114f2565b60405180910390fd5b60008060008473ffffffffffffffffffffffffffffffffffffffff1673ffffffffffffffffffffffffffffffffffffffff1681526020019081526020016000209050600081600201905060005b81805490508110156105c257838051906020012082828154811061054257610541611512565b5b906000526020600020906002020160000160405161056091906115e4565b6040518091039020036105af57600182828154811061058257610581611512565b5b906000526020600020906002020160010160146101000a81548160ff0219169083151502179055506105c2565b80806105ba90611634565b91505061051b565b5050505050565b60606000806000808573ffffffffffffffffffffffffffffffffffffffff1673ffffffffffffffffffffffffffffffffffffffff168152602001908152602001600020905060008060008673ffffffffffffffffffffffffffffffffffffffff1673ffffffffffffffffffffffffffffffffffffffff168152602001908152602001600020600001805461065c9061144f565b9050111561071057806000018160010160009054906101000a900460ff168180546106869061144f565b80601f01602080910402602001604051908101604052809291908181526020018280546106b29061144f565b80156106ff5780601f106106d4576101008083540402835291602001916106ff565b820191906000526020600020905b8154815290600101906020018083116106e257829003601f168201915b50505050509150925092505061074f565b60036040518060400160405280600181526020017f30000000000000000000000000000000000000000000000000000000000000008152509092509250505b915091565b60008060008573ffffffffffffffffffffffffffffffffffffffff1673ffffffffffffffffffffffffffffffffffffffff16815260200190815260200160002060000180546107a29061144f565b9050146107e4576040517f08c379a00000000000000000000000000000000000000000000000000000000081526004016107db906116c8565b60405180910390fd5b60008060008573ffffffffffffffffffffffffffffffffffffffff1673ffffffffffffffffffffffffffffffffffffffff1681526020019081526020016000209050828160000190816108379190611894565b50818160010160006101000a81548160ff0219169083600381111561085f5761085e6111d3565b5b021790555050505050565b6000806000808573ffffffffffffffffffffffffffffffffffffffff1673ffffffffffffffffffffffffffffffffffffffff16815260200190815260200160002060000180546108b99061144f565b9050146108fb576040517f08c379a00000000000000000000000000000000000000000000000000000000081526004016108f2906119b2565b60405180910390fd5b60008060008573ffffffffffffffffffffffffffffffffffffffff1673ffffffffffffffffffffffffffffffffffffffff16815260200190815260200160002090506000805b82600301805490508110156109ae57848051906020012083600301828154811061096e5761096d611512565b5b9060005260206000200160405161098591906115e4565b60405180910390200361099b57600191506109ae565b80806109a690611634565b915050610941565b50809250505092915050565b60008060008673ffffffffffffffffffffffffffffffffffffffff1673ffffffffffffffffffffffffffffffffffffffff1681526020019081526020016000206000018054610a089061144f565b905003610a1b57610a1a848383610754565b5b60008060008673ffffffffffffffffffffffffffffffffffffffff1673ffffffffffffffffffffffffffffffffffffffff1681526020019081526020016000209050610a65610d32565b84816000018190525033816020019073ffffffffffffffffffffffffffffffffffffffff16908173ffffffffffffffffffffffffffffffffffffffff1681525050816002018190806001815401808255809150506001900390600052602060002090600202016000909190919091506000820151816000019081610ae99190611894565b5060208201518160010160006101000a81548173ffffffffffffffffffffffffffffffffffffffff021916908373ffffffffffffffffffffffffffffffffffffffff16021790555060408201518160010160146101000a81548160ff0219169083151502179055505050505050505050565b60008060008473ffffffffffffffffffffffffffffffffffffffff1673ffffffffffffffffffffffffffffffffffffffff1681526020019081526020016000206000018054610ba99061144f565b905014610beb576040517f08c379a0000000000000000000000000000000000000000000000000000000008152600401610be2906119b2565b60405180910390fd5b60008060008473ffffffffffffffffffffffffffffffffffffffff1673ffffffffffffffffffffffffffffffffffffffff16815260200190815260200160002090508060030182908060018154018082558091505060019003906000526020600020016000909190919091509081610c639190611894565b50505050565b6000806000803373ffffffffffffffffffffffffffffffffffffffff1673ffffffffffffffffffffffffffffffffffffffff168152602001908152602001600020905060008160020190506000805b8280549050811015610d26578580519060200120838281548110610cdf57610cde611512565b5b9060005260206000209060020201600001604051610cfd91906115e4565b604051809103902003610d135760019150610d26565b8080610d1e90611634565b915050610cb8565b50809350505050919050565b604051806060016040528060608152602001600073ffffffffffffffffffffffffffffffffffffffff1681526020016000151581525090565b6000604051905090565b600080fd5b600080fd5b600073ffffffffffffffffffffffffffffffffffffffff82169050919050565b6000610daa82610d7f565b9050919050565b610dba81610d9f565b8114610dc557600080fd5b50565b600081359050610dd781610db1565b92915050565b600060208284031215610df357610df2610d75565b5b6000610e0184828501610dc8565b91505092915050565b600081519050919050565b600082825260208201905092915050565b6000819050602082019050919050565b600081519050919050565b600082825260208201905092915050565b60005b83811015610e70578082015181840152602081019050610e55565b60008484015250505050565b6000601f19601f8301169050919050565b6000610e9882610e36565b610ea28185610e41565b9350610eb2818560208601610e52565b610ebb81610e7c565b840191505092915050565b610ecf81610d9f565b82525050565b60008115159050919050565b610eea81610ed5565b82525050565b60006060830160008301518482036000860152610f0d8282610e8d565b9150506020830151610f226020860182610ec6565b506040830151610f356040860182610ee1565b508091505092915050565b6000610f4c8383610ef0565b905092915050565b6000602082019050919050565b6000610f6c82610e0a565b610f768185610e15565b935083602082028501610f8885610e26565b8060005b85811015610fc45784840389528151610fa58582610f40565b9450610fb083610f54565b925060208a01995050600181019050610f8c565b50829750879550505050505092915050565b60006020820190508181036000830152610ff08184610f61565b905092915050565b600080fd5b600080fd5b7f4e487b7100000000000000000000000000000000000000000000000000000000600052604160045260246000fd5b61103a82610e7c565b810181811067ffffffffffffffff8211171561105957611058611002565b5b80604052505050565b600061106c610d6b565b90506110788282611031565b919050565b600067ffffffffffffffff82111561109857611097611002565b5b6110a182610e7c565b9050602081019050919050565b82818337600083830152505050565b60006110d06110cb8461107d565b611062565b9050828152602081018484840111156110ec576110eb610ffd565b5b6110f78482856110ae565b509392505050565b600082601f83011261111457611113610ff8565b5b81356111248482602086016110bd565b91505092915050565b6000806040838503121561114457611143610d75565b5b600061115285828601610dc8565b925050602083013567ffffffffffffffff81111561117357611172610d7a565b5b61117f858286016110ff565b9150509250929050565b600082825260208201905092915050565b60006111a582610e36565b6111af8185611189565b93506111bf818560208601610e52565b6111c881610e7c565b840191505092915050565b7f4e487b7100000000000000000000000000000000000000000000000000000000600052602160045260246000fd5b60048110611213576112126111d3565b5b50565b600081905061122482611202565b919050565b600061123482611216565b9050919050565b61124481611229565b82525050565b60006040820190508181036000830152611264818561119a565b9050611273602083018461123b565b9392505050565b6004811061128757600080fd5b50565b6000813590506112998161127a565b92915050565b6000806000606084860312156112b8576112b7610d75565b5b60006112c686828701610dc8565b935050602084013567ffffffffffffffff8111156112e7576112e6610d7a565b5b6112f3868287016110ff565b92505060406113048682870161128a565b9150509250925092565b61131781610ed5565b82525050565b6000602082019050611332600083018461130e565b92915050565b6000806000806080858703121561135257611351610d75565b5b600061136087828801610dc8565b945050602085013567ffffffffffffffff81111561138157611380610d7a565b5b61138d878288016110ff565b935050604085013567ffffffffffffffff8111156113ae576113ad610d7a565b5b6113ba878288016110ff565b92505060606113cb8782880161128a565b91505092959194509250565b6000602082840312156113ed576113ec610d75565b5b600082013567ffffffffffffffff81111561140b5761140a610d7a565b5b611417848285016110ff565b91505092915050565b7f4e487b7100000000000000000000000000000000000000000000000000000000600052602260045260246000fd5b6000600282049050600182168061146757607f821691505b60208210810361147a57611479611420565b5b50919050565b7f4f6e6c79207665726966696572732063616e207665726966792063657274696660008201527f6963617465730000000000000000000000000000000000000000000000000000602082015250565b60006114dc602683611189565b91506114e782611480565b604082019050919050565b6000602082019050818103600083015261150b816114cf565b9050919050565b7f4e487b7100000000000000000000000000000000000000000000000000000000600052603260045260246000fd5b600081905092915050565b60008190508160005260206000209050919050565b6000815461156e8161144f565b6115788186611541565b9450600182166000811461159357600181146115a8576115db565b60ff19831686528115158202860193506115db565b6115b18561154c565b60005b838110156115d3578154818901526001820191506020810190506115b4565b838801955050505b50505092915050565b60006115f08284611561565b915081905092915050565b7f4e487b7100000000000000000000000000000000000000000000000000000000600052601160045260246000fd5b6000819050919050565b600061163f8261162a565b91507fffffffffffffffffffffffffffffffffffffffffffffffffffffffffffffffff8203611671576116706115fb565b5b600182019050919050565b7f5573657220616c72656164792065786973747300000000000000000000000000600082015250565b60006116b2601383611189565b91506116bd8261167c565b602082019050919050565b600060208201905081810360008301526116e1816116a5565b9050919050565b60008190508160005260206000209050919050565b60006020601f8301049050919050565b600082821b905092915050565b60006008830261174a7fffffffffffffffffffffffffffffffffffffffffffffffffffffffffffffffff8261170d565b611754868361170d565b95508019841693508086168417925050509392505050565b6000819050919050565b600061179161178c6117878461162a565b61176c565b61162a565b9050919050565b6000819050919050565b6117ab83611776565b6117bf6117b782611798565b84845461171a565b825550505050565b600090565b6117d46117c7565b6117df8184846117a2565b505050565b5b81811015611803576117f86000826117cc565b6001810190506117e5565b5050565b601f82111561184857611819816116e8565b611822846116fd565b81016020851015611831578190505b61184561183d856116fd565b8301826117e4565b50505b505050565b600082821c905092915050565b600061186b6000198460080261184d565b1980831691505092915050565b6000611884838361185a565b9150826002028217905092915050565b61189d82610e36565b67ffffffffffffffff8111156118b6576118b5611002565b5b6118c0825461144f565b6118cb828285611807565b600060209050601f8311600181146118fe57600084156118ec578287015190505b6118f68582611878565b86555061195e565b601f19841661190c866116e8565b60005b828110156119345784890151825560018201915060208501945060208101905061190f565b86831015611951578489015161194d601f89168261185a565b8355505b6001600288020188555050505b505050505050565b7f5573657220646f6573206e6f7420657869737400000000000000000000000000600082015250565b600061199c601383611189565b91506119a782611966565b602082019050919050565b600060208201905081810360008301526119cb8161198f565b905091905056fea2646970667358221220254e813e67df4d60dcea2ea244b31e54b4e0bfa2afb165550e190efdff58b1c364736f6c63430008120033",
  "immutableReferences": {},
  "source": "// SPDX-License-Identifier: MIT\r\npragma solidity ^0.8.0;\r\n\r\ncontract Certification{\r\n    struct User {\r\n        string id;\r\n        UserType userType;\r\n        Certificate[] certificates;\r\n        string[] sharedCertificates;\r\n    }\r\n\r\n    enum UserType { Issuer, Holder, Verifier , None }\r\n\r\n    struct Certificate {\r\n        string certificateId;\r\n        address Issuer;\r\n        bool verified;\r\n    }\r\n\r\n    mapping(address => User) private users;\r\n\r\n\r\n    function registerUser(address userAddress, string memory id , UserType userType) public {\r\n        require(bytes(users[userAddress].id).length == 0, \"User already exists\");\r\n\r\n        User storage user = users[userAddress];\r\n        user.id = id;\r\n        user.userType = userType;\r\n    }\r\n\r\n    function issueCertificate(address userAddress, string memory certificateId,string memory id , UserType userType ) public {\r\n      \r\n      if (bytes(users[userAddress].id).length == 0) {\r\n        registerUser(userAddress, id, userType);\r\n    }\r\n  \r\n        User storage user = users[userAddress];\r\n        Certificate memory certificate;\r\n        certificate.certificateId = certificateId;\r\n        certificate.Issuer = msg.sender;\r\n\r\n         user.certificates.push(certificate);\r\n\r\n    \r\n      \r\n    }\r\n    function verifyCertificate(address userAddress, string memory certificateId) public {\r\n        require(users[userAddress].userType == UserType.Verifier, \"Only verifiers can verify certificates\");\r\n\r\n        User storage user = users[userAddress];\r\n        Certificate[] storage certificates = user.certificates;\r\n        \r\n        for (uint i = 0; i < certificates.length; i++) {\r\n            if (keccak256(bytes(certificates[i].certificateId)) == keccak256(bytes(certificateId))) {\r\n                certificates[i].verified = true;\r\n                break;\r\n            }\r\n        }\r\n    }\r\n\r\n    function getUser(address userAddress) public view returns (string memory, UserType) {\r\n        User storage user = users[userAddress];\r\n        if (bytes(users[userAddress].id).length > 0){\r\n        return (user.id, user.userType);\r\n        }\r\n        return (\"0\" ,UserType.None );\r\n    }\r\n\r\n    function getUserCertificates(address userAddress) public view returns (Certificate[] memory) {\r\n        if (bytes(users[userAddress].id).length == 0) {\r\n        return new Certificate[](0);\r\n    }\r\n\r\n    User storage user = users[userAddress];\r\n    return user.certificates;\r\n    \r\n    }\r\n\r\n    function shareCertificate(address userAddress, string memory certificateId) public {\r\n    require(bytes(users[userAddress].id).length == 0, \"User does not exist\");\r\n\r\n    User storage user = users[userAddress];\r\n    user.sharedCertificates.push(certificateId);\r\n    }\r\n\r\n    function checkSharedCertificate(address userAddress, string memory certificateId) public  view returns (bool) {\r\n    require(bytes(users[userAddress].id).length == 0, \"User does not exist\");\r\n        User storage user = users[userAddress];\r\n       bool isShared = false;\r\n    for (uint i = 0; i < user.sharedCertificates.length; i++) {\r\n        if (keccak256(bytes(user.sharedCertificates[i])) == keccak256(bytes(certificateId)))  {\r\n            isShared = true;\r\n            break;\r\n        }\r\n    }\r\n    return isShared;\r\n    }\r\n\r\n    function checkCertificateWithUser(string memory certificateId) public  view returns (bool) {\r\n       \r\n             User storage user = users[msg.sender];\r\n            Certificate[] storage certificates = user.certificates;\r\n            bool isCorrect = false;\r\n\r\n            for (uint i = 0; i < certificates.length; i++) {\r\n            if (keccak256(bytes(certificates[i].certificateId)) == keccak256(bytes(certificateId))) {\r\n                  isCorrect = true;\r\n                break;\r\n            }\r\n            \r\n           \r\n        }\r\n    return isCorrect;\r\n    }\r\n}",
  "sourcePath": "D:\\certificates-issuer-blockchaon-Funtion\\blockchain-certificates-issuer\\src\\portals\\truffle\\contracts\\Certification.sol",
  "compiler": {
    "name": "solc",
    "version": "0.8.18+commit.87f61d96.Emscripten.clang"
  },
  "schemaVersion": "3.4.14",
  "updatedAt": "2023-06-27T15:01:09.340Z",
  "networkType": "ethereum",
  "devdoc": {
    "kind": "dev",
    "methods": {},
    "version": 1
  },
  "userdoc": {
    "kind": "user",
    "methods": {},
    "version": 1
  }
}